{
  "address": "0x5FbDB2315678afecb367f032d93F642f64180aa3",
  "abi": [
    {
      "inputs": [],
      "stateMutability": "nonpayable",
      "type": "constructor"
    },
    {
      "anonymous": false,
      "inputs": [
        {
          "indexed": true,
          "internalType": "address",
          "name": "owner",
          "type": "address"
        },
        {
          "indexed": true,
          "internalType": "address",
          "name": "approved",
          "type": "address"
        },
        {
          "indexed": true,
          "internalType": "uint256",
          "name": "tokenId",
          "type": "uint256"
        }
      ],
      "name": "Approval",
      "type": "event"
    },
    {
      "anonymous": false,
      "inputs": [
        {
          "indexed": true,
          "internalType": "address",
          "name": "owner",
          "type": "address"
        },
        {
          "indexed": true,
          "internalType": "address",
          "name": "operator",
          "type": "address"
        },
        {
          "indexed": false,
          "internalType": "bool",
          "name": "approved",
          "type": "bool"
        }
      ],
      "name": "ApprovalForAll",
      "type": "event"
    },
    {
      "anonymous": false,
      "inputs": [
        {
          "indexed": true,
          "internalType": "address",
          "name": "previousOwner",
          "type": "address"
        },
        {
          "indexed": true,
          "internalType": "address",
          "name": "newOwner",
          "type": "address"
        }
      ],
      "name": "OwnershipTransferred",
      "type": "event"
    },
    {
      "anonymous": false,
      "inputs": [
        {
          "indexed": true,
          "internalType": "address",
          "name": "from",
          "type": "address"
        },
        {
          "indexed": true,
          "internalType": "address",
          "name": "to",
          "type": "address"
        },
        {
          "indexed": true,
          "internalType": "uint256",
          "name": "tokenId",
          "type": "uint256"
        }
      ],
      "name": "Transfer",
      "type": "event"
    },
    {
      "anonymous": false,
      "inputs": [
        {
          "indexed": false,
          "internalType": "string",
          "name": "firstName",
          "type": "string"
        },
        {
          "indexed": false,
          "internalType": "string",
          "name": "lastName",
          "type": "string"
        },
        {
          "indexed": false,
          "internalType": "string",
          "name": "ipfsURI",
          "type": "string"
        }
      ],
      "name": "createPeople",
      "type": "event"
    },
    {
      "inputs": [
        {
          "internalType": "address",
          "name": "to",
          "type": "address"
        },
        {
          "internalType": "uint256",
          "name": "tokenId",
          "type": "uint256"
        }
      ],
      "name": "approve",
      "outputs": [],
      "stateMutability": "nonpayable",
      "type": "function"
    },
    {
      "inputs": [
        {
          "internalType": "address",
          "name": "owner",
          "type": "address"
        }
      ],
      "name": "balanceOf",
      "outputs": [
        {
          "internalType": "uint256",
          "name": "",
          "type": "uint256"
        }
      ],
      "stateMutability": "view",
      "type": "function"
    },
    {
      "inputs": [],
      "name": "baseExtension",
      "outputs": [
        {
          "internalType": "string",
          "name": "",
          "type": "string"
        }
      ],
      "stateMutability": "view",
      "type": "function"
    },
    {
      "inputs": [],
      "name": "baseURI",
      "outputs": [
        {
          "internalType": "string",
          "name": "",
          "type": "string"
        }
      ],
      "stateMutability": "view",
      "type": "function"
    },
    {
      "inputs": [],
      "name": "getAllActors",
      "outputs": [
        {
          "components": [
            {
              "internalType": "uint256",
              "name": "id",
              "type": "uint256"
            },
            {
              "internalType": "string",
              "name": "firstName",
              "type": "string"
            },
            {
              "internalType": "string",
              "name": "lastName",
              "type": "string"
            },
            {
              "internalType": "string",
              "name": "ipfsURI",
              "type": "string"
            },
            {
              "internalType": "address",
              "name": "addressPeople",
              "type": "address"
            }
          ],
          "internalType": "struct Peoples.People[]",
          "name": "",
          "type": "tuple[]"
        }
      ],
      "stateMutability": "view",
      "type": "function"
    },
    {
      "inputs": [],
      "name": "getAllDirectors",
      "outputs": [
        {
          "internalType": "uint256[]",
          "name": "",
          "type": "uint256[]"
        }
      ],
      "stateMutability": "view",
      "type": "function"
    },
    {
      "inputs": [
        {
          "internalType": "uint256",
          "name": "tokenId",
          "type": "uint256"
        }
      ],
      "name": "getApproved",
      "outputs": [
        {
          "internalType": "address",
          "name": "",
          "type": "address"
        }
      ],
      "stateMutability": "view",
      "type": "function"
    },
    {
      "inputs": [
        {
          "internalType": "address",
          "name": "owner",
          "type": "address"
        },
        {
          "internalType": "address",
          "name": "operator",
          "type": "address"
        }
      ],
      "name": "isApprovedForAll",
      "outputs": [
        {
          "internalType": "bool",
          "name": "",
          "type": "bool"
        }
      ],
      "stateMutability": "view",
      "type": "function"
    },
    {
      "inputs": [
        {
          "internalType": "uint256",
          "name": "",
          "type": "uint256"
        }
      ],
      "name": "listActors",
      "outputs": [
        {
          "internalType": "uint256",
          "name": "id",
          "type": "uint256"
        },
        {
          "internalType": "string",
          "name": "firstName",
          "type": "string"
        },
        {
          "internalType": "string",
          "name": "lastName",
          "type": "string"
        },
        {
          "internalType": "string",
          "name": "ipfsURI",
          "type": "string"
        },
        {
          "internalType": "address",
          "name": "addressPeople",
          "type": "address"
        }
      ],
      "stateMutability": "view",
      "type": "function"
    },
    {
      "inputs": [
        {
          "internalType": "uint256",
          "name": "",
          "type": "uint256"
        }
      ],
      "name": "listDirectors",
      "outputs": [
        {
          "internalType": "uint256",
          "name": "id",
          "type": "uint256"
        },
        {
          "internalType": "string",
          "name": "firstName",
          "type": "string"
        },
        {
          "internalType": "string",
          "name": "lastName",
          "type": "string"
        },
        {
          "internalType": "string",
          "name": "ipfsURI",
          "type": "string"
        },
        {
          "internalType": "address",
          "name": "addressPeople",
          "type": "address"
        }
      ],
      "stateMutability": "view",
      "type": "function"
    },
    {
      "inputs": [
        {
          "internalType": "string",
          "name": "_firstName",
          "type": "string"
        },
        {
          "internalType": "string",
          "name": "_lastName",
          "type": "string"
        },
        {
          "internalType": "string",
          "name": "_ipfsURI",
          "type": "string"
        },
        {
          "internalType": "address",
          "name": "_addressPeople",
          "type": "address"
        }
      ],
      "name": "mintActor",
      "outputs": [],
      "stateMutability": "nonpayable",
      "type": "function"
    },
    {
      "inputs": [
        {
          "internalType": "string",
          "name": "_firstName",
          "type": "string"
        },
        {
          "internalType": "string",
          "name": "_lastName",
          "type": "string"
        },
        {
          "internalType": "string",
          "name": "_ipfsURI",
          "type": "string"
        },
        {
          "internalType": "address",
          "name": "_addressPeople",
          "type": "address"
        }
      ],
      "name": "mintDirector",
      "outputs": [],
      "stateMutability": "nonpayable",
      "type": "function"
    },
    {
      "inputs": [],
      "name": "name",
      "outputs": [
        {
          "internalType": "string",
          "name": "",
          "type": "string"
        }
      ],
      "stateMutability": "view",
      "type": "function"
    },
    {
      "inputs": [],
      "name": "owner",
      "outputs": [
        {
          "internalType": "address",
          "name": "",
          "type": "address"
        }
      ],
      "stateMutability": "view",
      "type": "function"
    },
    {
      "inputs": [
        {
          "internalType": "uint256",
          "name": "tokenId",
          "type": "uint256"
        }
      ],
      "name": "ownerOf",
      "outputs": [
        {
          "internalType": "address",
          "name": "",
          "type": "address"
        }
      ],
      "stateMutability": "view",
      "type": "function"
    },
    {
      "inputs": [],
      "name": "renounceOwnership",
      "outputs": [],
      "stateMutability": "nonpayable",
      "type": "function"
    },
    {
      "inputs": [
        {
          "internalType": "address",
          "name": "from",
          "type": "address"
        },
        {
          "internalType": "address",
          "name": "to",
          "type": "address"
        },
        {
          "internalType": "uint256",
          "name": "tokenId",
          "type": "uint256"
        }
      ],
      "name": "safeTransferFrom",
      "outputs": [],
      "stateMutability": "nonpayable",
      "type": "function"
    },
    {
      "inputs": [
        {
          "internalType": "address",
          "name": "from",
          "type": "address"
        },
        {
          "internalType": "address",
          "name": "to",
          "type": "address"
        },
        {
          "internalType": "uint256",
          "name": "tokenId",
          "type": "uint256"
        },
        {
          "internalType": "bytes",
          "name": "data",
          "type": "bytes"
        }
      ],
      "name": "safeTransferFrom",
      "outputs": [],
      "stateMutability": "nonpayable",
      "type": "function"
    },
    {
      "inputs": [
        {
          "internalType": "address",
          "name": "operator",
          "type": "address"
        },
        {
          "internalType": "bool",
          "name": "approved",
          "type": "bool"
        }
      ],
      "name": "setApprovalForAll",
      "outputs": [],
      "stateMutability": "nonpayable",
      "type": "function"
    },
    {
      "inputs": [
        {
          "internalType": "string",
          "name": "_newBaseURI",
          "type": "string"
        }
      ],
      "name": "setBaseURI",
      "outputs": [],
      "stateMutability": "nonpayable",
      "type": "function"
    },
    {
      "inputs": [
        {
          "internalType": "bytes4",
          "name": "interfaceId",
          "type": "bytes4"
        }
      ],
      "name": "supportsInterface",
      "outputs": [
        {
          "internalType": "bool",
          "name": "",
          "type": "bool"
        }
      ],
      "stateMutability": "view",
      "type": "function"
    },
    {
      "inputs": [],
      "name": "symbol",
      "outputs": [
        {
          "internalType": "string",
          "name": "",
          "type": "string"
        }
      ],
      "stateMutability": "view",
      "type": "function"
    },
    {
      "inputs": [
        {
          "internalType": "uint256",
          "name": "index",
          "type": "uint256"
        }
      ],
      "name": "tokenByIndex",
      "outputs": [
        {
          "internalType": "uint256",
          "name": "",
          "type": "uint256"
        }
      ],
      "stateMutability": "view",
      "type": "function"
    },
    {
      "inputs": [
        {
          "internalType": "address",
          "name": "owner",
          "type": "address"
        },
        {
          "internalType": "uint256",
          "name": "index",
          "type": "uint256"
        }
      ],
      "name": "tokenOfOwnerByIndex",
      "outputs": [
        {
          "internalType": "uint256",
          "name": "",
          "type": "uint256"
        }
      ],
      "stateMutability": "view",
      "type": "function"
    },
    {
      "inputs": [
        {
          "internalType": "uint256",
          "name": "tokenId",
          "type": "uint256"
        }
      ],
      "name": "tokenURI",
      "outputs": [
        {
          "internalType": "string",
          "name": "",
          "type": "string"
        }
      ],
      "stateMutability": "view",
      "type": "function"
    },
    {
      "inputs": [],
      "name": "totalSupply",
      "outputs": [
        {
          "internalType": "uint256",
          "name": "",
          "type": "uint256"
        }
      ],
      "stateMutability": "view",
      "type": "function"
    },
    {
      "inputs": [
        {
          "internalType": "address",
          "name": "from",
          "type": "address"
        },
        {
          "internalType": "address",
          "name": "to",
          "type": "address"
        },
        {
          "internalType": "uint256",
          "name": "tokenId",
          "type": "uint256"
        }
      ],
      "name": "transferFrom",
      "outputs": [],
      "stateMutability": "nonpayable",
      "type": "function"
    },
    {
      "inputs": [
        {
          "internalType": "address",
          "name": "newOwner",
          "type": "address"
        }
      ],
      "name": "transferOwnership",
      "outputs": [],
      "stateMutability": "nonpayable",
      "type": "function"
    }
  ],
  "transactionHash": "0xd3ffb29a99b1dfd4500e6c3467b9082165cfa369156259bfc2263c2ddee6a2d4",
  "args": [],
  "numDeployments": 1,
  "solcInputHash": "abfec31ced2df200eda6d5d9e9c33aef",
  "bytecode": "0x60806040526040518060400160405280600581526020017f2e6a736f6e000000000000000000000000000000000000000000000000000000815250600d90816200004a919062000498565b503480156200005857600080fd5b506040518060400160405280601881526020017f50656f706c652047656e657261746564204465764665737400000000000000008152506040518060400160405280600281526020017f4446000000000000000000000000000000000000000000000000000000000000815250620000e5620000d96200015260201b60201c565b6200015a60201b60201c565b8160019081620000f6919062000498565b50806002908162000108919062000498565b50505033600b60006101000a81548173ffffffffffffffffffffffffffffffffffffffff021916908373ffffffffffffffffffffffffffffffffffffffff1602179055506200057f565b600033905090565b60008060009054906101000a900473ffffffffffffffffffffffffffffffffffffffff169050816000806101000a81548173ffffffffffffffffffffffffffffffffffffffff021916908373ffffffffffffffffffffffffffffffffffffffff1602179055508173ffffffffffffffffffffffffffffffffffffffff168173ffffffffffffffffffffffffffffffffffffffff167f8be0079c531659141344cd1fd0a4f28419497f9722a3daafe3b4186f6b6457e060405160405180910390a35050565b600081519050919050565b7f4e487b7100000000000000000000000000000000000000000000000000000000600052604160045260246000fd5b7f4e487b7100000000000000000000000000000000000000000000000000000000600052602260045260246000fd5b60006002820490506001821680620002a057607f821691505b602082108103620002b657620002b562000258565b5b50919050565b60008190508160005260206000209050919050565b60006020601f8301049050919050565b600082821b905092915050565b600060088302620003207fffffffffffffffffffffffffffffffffffffffffffffffffffffffffffffffff82620002e1565b6200032c8683620002e1565b95508019841693508086168417925050509392505050565b6000819050919050565b6000819050919050565b600062000379620003736200036d8462000344565b6200034e565b62000344565b9050919050565b6000819050919050565b620003958362000358565b620003ad620003a48262000380565b848454620002ee565b825550505050565b600090565b620003c4620003b5565b620003d18184846200038a565b505050565b5b81811015620003f957620003ed600082620003ba565b600181019050620003d7565b5050565b601f82111562000448576200041281620002bc565b6200041d84620002d1565b810160208510156200042d578190505b620004456200043c85620002d1565b830182620003d6565b50505b505050565b600082821c905092915050565b60006200046d600019846008026200044d565b1980831691505092915050565b60006200048883836200045a565b9150826002028217905092915050565b620004a3826200021e565b67ffffffffffffffff811115620004bf57620004be62000229565b5b620004cb825462000287565b620004d8828285620003fd565b600060209050601f831160018114620005105760008415620004fb578287015190505b6200050785826200047a565b86555062000577565b601f1984166200052086620002bc565b60005b828110156200054a5784890151825560018201915060208501945060208101905062000523565b868310156200056a578489015162000566601f8916826200045a565b8355505b6001600288020188555050505b505050505050565b61431b806200058f6000396000f3fe608060405234801561001057600080fd5b50600436106101c45760003560e01c80636352211e116100f957806398e981ea11610097578063c668286211610071578063c66828621461050d578063c87b56dd1461052b578063e985e9c51461055b578063f2fde38b1461058b576101c4565b806398e981ea146104b9578063a22cb465146104d5578063b88d4fde146104f1576101c4565b8063715018a6116100d3578063715018a61461043f5780638da5cb5b14610449578063919de46f1461046757806395d89b411461049b576101c4565b80636352211e146103c15780636c0360eb146103f157806370a082311461040f576101c4565b806323b872dd116101665780633701deaa116101405780633701deaa1461033d57806342842e0e146103595780634f6ccce71461037557806355f804b3146103a5576101c4565b806323b872dd146102bd5780632c417d94146102d95780632f745c591461030d576101c4565b8063095ea7b3116101a2578063095ea7b3146102475780630fe560921461026357806318160ddd146102815780631d010ed51461029f576101c4565b806301ffc9a7146101c957806306fdde03146101f9578063081812fc14610217575b600080fd5b6101e360048036038101906101de9190612b86565b6105a7565b6040516101f09190612bce565b60405180910390f35b610201610621565b60405161020e9190612c79565b60405180910390f35b610231600480360381019061022c9190612cd1565b6106b3565b60405161023e9190612d3f565b60405180910390f35b610261600480360381019061025c9190612d86565b6106f9565b005b61026b610810565b6040516102789190612e84565b60405180910390f35b6102896108bf565b6040516102969190612eb5565b60405180910390f35b6102a76108cc565b6040516102b4919061306f565b60405180910390f35b6102d760048036038101906102d29190613091565b610b41565b005b6102f360048036038101906102ee9190612cd1565b610ba1565b6040516103049594939291906130e4565b60405180910390f35b61032760048036038101906103229190612d86565b610d9f565b6040516103349190612eb5565b60405180910390f35b61035760048036038101906103529190613281565b610e44565b005b610373600480360381019061036e9190613091565b610fad565b005b61038f600480360381019061038a9190612cd1565b610fcd565b60405161039c9190612eb5565b60405180910390f35b6103bf60048036038101906103ba919061333c565b61103e565b005b6103db60048036038101906103d69190612cd1565b611059565b6040516103e89190612d3f565b60405180910390f35b6103f96110df565b6040516104069190612c79565b60405180910390f35b61042960048036038101906104249190613385565b61116d565b6040516104369190612eb5565b60405180910390f35b610447611224565b005b610451611238565b60405161045e9190612d3f565b60405180910390f35b610481600480360381019061047c9190612cd1565b611261565b6040516104929594939291906130e4565b60405180910390f35b6104a361145f565b6040516104b09190612c79565b60405180910390f35b6104d360048036038101906104ce9190613281565b6114f1565b005b6104ef60048036038101906104ea91906133de565b61165a565b005b61050b600480360381019061050691906134bf565b611670565b005b6105156116d2565b6040516105229190612c79565b60405180910390f35b61054560048036038101906105409190612cd1565b611760565b6040516105529190612c79565b60405180910390f35b61057560048036038101906105709190613542565b6117c8565b6040516105829190612bce565b60405180910390f35b6105a560048036038101906105a09190613385565b61185c565b005b60007f780e9d63000000000000000000000000000000000000000000000000000000007bffffffffffffffffffffffffffffffffffffffffffffffffffffffff1916827bffffffffffffffffffffffffffffffffffffffffffffffffffffffff1916148061061a5750610619826118df565b5b9050919050565b606060018054610630906135b1565b80601f016020809104026020016040519081016040528092919081815260200182805461065c906135b1565b80156106a95780601f1061067e576101008083540402835291602001916106a9565b820191906000526020600020905b81548152906001019060200180831161068c57829003601f168201915b5050505050905090565b60006106be826119c1565b6005600083815260200190815260200160002060009054906101000a900473ffffffffffffffffffffffffffffffffffffffff169050919050565b600061070482611059565b90508073ffffffffffffffffffffffffffffffffffffffff168373ffffffffffffffffffffffffffffffffffffffff1603610774576040517f08c379a000000000000000000000000000000000000000000000000000000000815260040161076b90613654565b60405180910390fd5b8073ffffffffffffffffffffffffffffffffffffffff16610793611a0c565b73ffffffffffffffffffffffffffffffffffffffff1614806107c257506107c1816107bc611a0c565b6117c8565b5b610801576040517f08c379a00000000000000000000000000000000000000000000000000000000081526004016107f8906136e6565b60405180910390fd5b61080b8383611a14565b505050565b60606000600f8054905067ffffffffffffffff81111561083357610832613156565b5b6040519080825280602002602001820160405280156108615781602001602082028036833780820191505090505b5090506000805b600f805490508110156108b6578083838151811061088957610888613706565b5b60200260200101818152505081806108a090613764565b92505080806108ae90613764565b915050610868565b50819250505090565b6000600980549050905090565b6060600e805480602002602001604051908101604052809291908181526020016000905b82821015610b3857838290600052602060002090600502016040518060a00160405290816000820154815260200160018201805461092d906135b1565b80601f0160208091040260200160405190810160405280929190818152602001828054610959906135b1565b80156109a65780601f1061097b576101008083540402835291602001916109a6565b820191906000526020600020905b81548152906001019060200180831161098957829003601f168201915b505050505081526020016002820180546109bf906135b1565b80601f01602080910402602001604051908101604052809291908181526020018280546109eb906135b1565b8015610a385780601f10610a0d57610100808354040283529160200191610a38565b820191906000526020600020905b815481529060010190602001808311610a1b57829003601f168201915b50505050508152602001600382018054610a51906135b1565b80601f0160208091040260200160405190810160405280929190818152602001828054610a7d906135b1565b8015610aca5780601f10610a9f57610100808354040283529160200191610aca565b820191906000526020600020905b815481529060010190602001808311610aad57829003601f168201915b505050505081526020016004820160009054906101000a900473ffffffffffffffffffffffffffffffffffffffff1673ffffffffffffffffffffffffffffffffffffffff1673ffffffffffffffffffffffffffffffffffffffff1681525050815260200190600101906108f0565b50505050905090565b610b52610b4c611a0c565b82611acd565b610b91576040517f08c379a0000000000000000000000000000000000000000000000000000000008152600401610b889061381e565b60405180910390fd5b610b9c838383611b62565b505050565b600e8181548110610bb157600080fd5b9060005260206000209060050201600091509050806000015490806001018054610bda906135b1565b80601f0160208091040260200160405190810160405280929190818152602001828054610c06906135b1565b8015610c535780601f10610c2857610100808354040283529160200191610c53565b820191906000526020600020905b815481529060010190602001808311610c3657829003601f168201915b505050505090806002018054610c68906135b1565b80601f0160208091040260200160405190810160405280929190818152602001828054610c94906135b1565b8015610ce15780601f10610cb657610100808354040283529160200191610ce1565b820191906000526020600020905b815481529060010190602001808311610cc457829003601f168201915b505050505090806003018054610cf6906135b1565b80601f0160208091040260200160405190810160405280929190818152602001828054610d22906135b1565b8015610d6f5780601f10610d4457610100808354040283529160200191610d6f565b820191906000526020600020905b815481529060010190602001808311610d5257829003601f168201915b5050505050908060040160009054906101000a900473ffffffffffffffffffffffffffffffffffffffff16905085565b6000610daa8361116d565b8210610deb576040517f08c379a0000000000000000000000000000000000000000000000000000000008152600401610de2906138b0565b60405180910390fd5b600760008473ffffffffffffffffffffffffffffffffffffffff1673ffffffffffffffffffffffffffffffffffffffff168152602001908152602001600020600083815260200190815260200160002054905092915050565b60006001610e506108bf565b610e5a91906138d0565b905060006040518060a001604052808381526020018781526020018681526020018581526020018473ffffffffffffffffffffffffffffffffffffffff168152509050600f819080600181540180825580915050600190039060005260206000209060050201600090919091909150600082015181600001556020820151816001019081610ee89190613ab0565b506040820151816002019081610efe9190613ab0565b506060820151816003019081610f149190613ab0565b5060808201518160040160006101000a81548173ffffffffffffffffffffffffffffffffffffffff021916908373ffffffffffffffffffffffffffffffffffffffff16021790555050507f76fbf9716fd466b8bd14ece0e81145fb889124e87dc4741f2079c33cc1b0af04816020015182604001518360600151604051610f9d93929190613b82565b60405180910390a1505050505050565b610fc883838360405180602001604052806000815250611670565b505050565b6000610fd76108bf565b8210611018576040517f08c379a000000000000000000000000000000000000000000000000000000000815260040161100f90613c40565b60405180910390fd5b6009828154811061102c5761102b613706565b5b90600052602060002001549050919050565b611046611e5b565b80600c90816110559190613ab0565b5050565b60008061106583611ed9565b9050600073ffffffffffffffffffffffffffffffffffffffff168173ffffffffffffffffffffffffffffffffffffffff16036110d6576040517f08c379a00000000000000000000000000000000000000000000000000000000081526004016110cd90613cac565b60405180910390fd5b80915050919050565b600c80546110ec906135b1565b80601f0160208091040260200160405190810160405280929190818152602001828054611118906135b1565b80156111655780601f1061113a57610100808354040283529160200191611165565b820191906000526020600020905b81548152906001019060200180831161114857829003601f168201915b505050505081565b60008073ffffffffffffffffffffffffffffffffffffffff168273ffffffffffffffffffffffffffffffffffffffff16036111dd576040517f08c379a00000000000000000000000000000000000000000000000000000000081526004016111d490613d3e565b60405180910390fd5b600460008373ffffffffffffffffffffffffffffffffffffffff1673ffffffffffffffffffffffffffffffffffffffff168152602001908152602001600020549050919050565b61122c611e5b565b6112366000611f16565b565b60008060009054906101000a900473ffffffffffffffffffffffffffffffffffffffff16905090565b600f818154811061127157600080fd5b906000526020600020906005020160009150905080600001549080600101805461129a906135b1565b80601f01602080910402602001604051908101604052809291908181526020018280546112c6906135b1565b80156113135780601f106112e857610100808354040283529160200191611313565b820191906000526020600020905b8154815290600101906020018083116112f657829003601f168201915b505050505090806002018054611328906135b1565b80601f0160208091040260200160405190810160405280929190818152602001828054611354906135b1565b80156113a15780601f10611376576101008083540402835291602001916113a1565b820191906000526020600020905b81548152906001019060200180831161138457829003601f168201915b5050505050908060030180546113b6906135b1565b80601f01602080910402602001604051908101604052809291908181526020018280546113e2906135b1565b801561142f5780601f106114045761010080835404028352916020019161142f565b820191906000526020600020905b81548152906001019060200180831161141257829003601f168201915b5050505050908060040160009054906101000a900473ffffffffffffffffffffffffffffffffffffffff16905085565b60606002805461146e906135b1565b80601f016020809104026020016040519081016040528092919081815260200182805461149a906135b1565b80156114e75780601f106114bc576101008083540402835291602001916114e7565b820191906000526020600020905b8154815290600101906020018083116114ca57829003601f168201915b5050505050905090565b600060016114fd6108bf565b61150791906138d0565b905060006040518060a001604052808381526020018781526020018681526020018581526020018473ffffffffffffffffffffffffffffffffffffffff168152509050600e8190806001815401808255809150506001900390600052602060002090600502016000909190919091506000820151816000015560208201518160010190816115959190613ab0565b5060408201518160020190816115ab9190613ab0565b5060608201518160030190816115c19190613ab0565b5060808201518160040160006101000a81548173ffffffffffffffffffffffffffffffffffffffff021916908373ffffffffffffffffffffffffffffffffffffffff16021790555050507f76fbf9716fd466b8bd14ece0e81145fb889124e87dc4741f2079c33cc1b0af0481602001518260400151836060015160405161164a93929190613b82565b60405180910390a1505050505050565b61166c611665611a0c565b8383611fda565b5050565b61168161167b611a0c565b83611acd565b6116c0576040517f08c379a00000000000000000000000000000000000000000000000000000000081526004016116b79061381e565b60405180910390fd5b6116cc84848484612146565b50505050565b600d80546116df906135b1565b80601f016020809104026020016040519081016040528092919081815260200182805461170b906135b1565b80156117585780601f1061172d57610100808354040283529160200191611758565b820191906000526020600020905b81548152906001019060200180831161173b57829003601f168201915b505050505081565b606061176b826119c1565b60006117756121a2565b9050600081511161179557604051806020016040528060008152506117c0565b8061179f84612234565b6040516020016117b0929190613d9a565b6040516020818303038152906040525b915050919050565b6000600660008473ffffffffffffffffffffffffffffffffffffffff1673ffffffffffffffffffffffffffffffffffffffff16815260200190815260200160002060008373ffffffffffffffffffffffffffffffffffffffff1673ffffffffffffffffffffffffffffffffffffffff16815260200190815260200160002060009054906101000a900460ff16905092915050565b611864611e5b565b600073ffffffffffffffffffffffffffffffffffffffff168173ffffffffffffffffffffffffffffffffffffffff16036118d3576040517f08c379a00000000000000000000000000000000000000000000000000000000081526004016118ca90613e30565b60405180910390fd5b6118dc81611f16565b50565b60007f80ac58cd000000000000000000000000000000000000000000000000000000007bffffffffffffffffffffffffffffffffffffffffffffffffffffffff1916827bffffffffffffffffffffffffffffffffffffffffffffffffffffffff191614806119aa57507f5b5e139f000000000000000000000000000000000000000000000000000000007bffffffffffffffffffffffffffffffffffffffffffffffffffffffff1916827bffffffffffffffffffffffffffffffffffffffffffffffffffffffff1916145b806119ba57506119b982612302565b5b9050919050565b6119ca8161236c565b611a09576040517f08c379a0000000000000000000000000000000000000000000000000000000008152600401611a0090613cac565b60405180910390fd5b50565b600033905090565b816005600083815260200190815260200160002060006101000a81548173ffffffffffffffffffffffffffffffffffffffff021916908373ffffffffffffffffffffffffffffffffffffffff160217905550808273ffffffffffffffffffffffffffffffffffffffff16611a8783611059565b73ffffffffffffffffffffffffffffffffffffffff167f8c5be1e5ebec7d5bd14f71427d1e84f3dd0314c0f7b2291e5b200ac8c7c3b92560405160405180910390a45050565b600080611ad983611059565b90508073ffffffffffffffffffffffffffffffffffffffff168473ffffffffffffffffffffffffffffffffffffffff161480611b1b5750611b1a81856117c8565b5b80611b5957508373ffffffffffffffffffffffffffffffffffffffff16611b41846106b3565b73ffffffffffffffffffffffffffffffffffffffff16145b91505092915050565b8273ffffffffffffffffffffffffffffffffffffffff16611b8282611059565b73ffffffffffffffffffffffffffffffffffffffff1614611bd8576040517f08c379a0000000000000000000000000000000000000000000000000000000008152600401611bcf90613ec2565b60405180910390fd5b600073ffffffffffffffffffffffffffffffffffffffff168273ffffffffffffffffffffffffffffffffffffffff1603611c47576040517f08c379a0000000000000000000000000000000000000000000000000000000008152600401611c3e90613f54565b60405180910390fd5b611c5483838360016123ad565b8273ffffffffffffffffffffffffffffffffffffffff16611c7482611059565b73ffffffffffffffffffffffffffffffffffffffff1614611cca576040517f08c379a0000000000000000000000000000000000000000000000000000000008152600401611cc190613ec2565b60405180910390fd5b6005600082815260200190815260200160002060006101000a81549073ffffffffffffffffffffffffffffffffffffffff02191690556001600460008573ffffffffffffffffffffffffffffffffffffffff1673ffffffffffffffffffffffffffffffffffffffff168152602001908152602001600020600082825403925050819055506001600460008473ffffffffffffffffffffffffffffffffffffffff1673ffffffffffffffffffffffffffffffffffffffff16815260200190815260200160002060008282540192505081905550816003600083815260200190815260200160002060006101000a81548173ffffffffffffffffffffffffffffffffffffffff021916908373ffffffffffffffffffffffffffffffffffffffff160217905550808273ffffffffffffffffffffffffffffffffffffffff168473ffffffffffffffffffffffffffffffffffffffff167fddf252ad1be2c89b69c2b068fc378daa952ba7f163c4a11628f55a4df523b3ef60405160405180910390a4611e56838383600161250b565b505050565b611e63611a0c565b73ffffffffffffffffffffffffffffffffffffffff16611e81611238565b73ffffffffffffffffffffffffffffffffffffffff1614611ed7576040517f08c379a0000000000000000000000000000000000000000000000000000000008152600401611ece90613fc0565b60405180910390fd5b565b60006003600083815260200190815260200160002060009054906101000a900473ffffffffffffffffffffffffffffffffffffffff169050919050565b60008060009054906101000a900473ffffffffffffffffffffffffffffffffffffffff169050816000806101000a81548173ffffffffffffffffffffffffffffffffffffffff021916908373ffffffffffffffffffffffffffffffffffffffff1602179055508173ffffffffffffffffffffffffffffffffffffffff168173ffffffffffffffffffffffffffffffffffffffff167f8be0079c531659141344cd1fd0a4f28419497f9722a3daafe3b4186f6b6457e060405160405180910390a35050565b8173ffffffffffffffffffffffffffffffffffffffff168373ffffffffffffffffffffffffffffffffffffffff1603612048576040517f08c379a000000000000000000000000000000000000000000000000000000000815260040161203f9061402c565b60405180910390fd5b80600660008573ffffffffffffffffffffffffffffffffffffffff1673ffffffffffffffffffffffffffffffffffffffff16815260200190815260200160002060008473ffffffffffffffffffffffffffffffffffffffff1673ffffffffffffffffffffffffffffffffffffffff16815260200190815260200160002060006101000a81548160ff0219169083151502179055508173ffffffffffffffffffffffffffffffffffffffff168373ffffffffffffffffffffffffffffffffffffffff167f17307eab39ab6107e8899845ad3d59bd9653f200f220920489ca2b5937696c31836040516121399190612bce565b60405180910390a3505050565b612151848484611b62565b61215d84848484612511565b61219c576040517f08c379a0000000000000000000000000000000000000000000000000000000008152600401612193906140be565b60405180910390fd5b50505050565b6060600c80546121b1906135b1565b80601f01602080910402602001604051908101604052809291908181526020018280546121dd906135b1565b801561222a5780601f106121ff5761010080835404028352916020019161222a565b820191906000526020600020905b81548152906001019060200180831161220d57829003601f168201915b5050505050905090565b60606000600161224384612698565b01905060008167ffffffffffffffff81111561226257612261613156565b5b6040519080825280601f01601f1916602001820160405280156122945781602001600182028036833780820191505090505b509050600082602001820190505b6001156122f7578080600190039150507f3031323334353637383961626364656600000000000000000000000000000000600a86061a8153600a85816122eb576122ea6140de565b5b049450600085036122a2575b819350505050919050565b60007f01ffc9a7000000000000000000000000000000000000000000000000000000007bffffffffffffffffffffffffffffffffffffffffffffffffffffffff1916827bffffffffffffffffffffffffffffffffffffffffffffffffffffffff1916149050919050565b60008073ffffffffffffffffffffffffffffffffffffffff1661238e83611ed9565b73ffffffffffffffffffffffffffffffffffffffff1614159050919050565b6123b9848484846127eb565b60018111156123fd576040517f08c379a00000000000000000000000000000000000000000000000000000000081526004016123f49061417f565b60405180910390fd5b6000829050600073ffffffffffffffffffffffffffffffffffffffff168573ffffffffffffffffffffffffffffffffffffffff16036124445761243f816127f1565b612483565b8373ffffffffffffffffffffffffffffffffffffffff168573ffffffffffffffffffffffffffffffffffffffff161461248257612481858261283a565b5b5b600073ffffffffffffffffffffffffffffffffffffffff168473ffffffffffffffffffffffffffffffffffffffff16036124c5576124c0816129a7565b612504565b8473ffffffffffffffffffffffffffffffffffffffff168473ffffffffffffffffffffffffffffffffffffffff1614612503576125028482612a78565b5b5b5050505050565b50505050565b60006125328473ffffffffffffffffffffffffffffffffffffffff16612af7565b1561268b578373ffffffffffffffffffffffffffffffffffffffff1663150b7a0261255b611a0c565b8786866040518563ffffffff1660e01b815260040161257d94939291906141f4565b6020604051808303816000875af19250505080156125b957506040513d601f19601f820116820180604052508101906125b69190614255565b60015b61263b573d80600081146125e9576040519150601f19603f3d011682016040523d82523d6000602084013e6125ee565b606091505b506000815103612633576040517f08c379a000000000000000000000000000000000000000000000000000000000815260040161262a906140be565b60405180910390fd5b805181602001fd5b63150b7a0260e01b7bffffffffffffffffffffffffffffffffffffffffffffffffffffffff1916817bffffffffffffffffffffffffffffffffffffffffffffffffffffffff191614915050612690565b600190505b949350505050565b600080600090507a184f03e93ff9f4daa797ed6e38ed64bf6a1f01000000000000000083106126f6577a184f03e93ff9f4daa797ed6e38ed64bf6a1f01000000000000000083816126ec576126eb6140de565b5b0492506040810190505b6d04ee2d6d415b85acef81000000008310612733576d04ee2d6d415b85acef81000000008381612729576127286140de565b5b0492506020810190505b662386f26fc10000831061276257662386f26fc100008381612758576127576140de565b5b0492506010810190505b6305f5e100831061278b576305f5e1008381612781576127806140de565b5b0492506008810190505b61271083106127b05761271083816127a6576127a56140de565b5b0492506004810190505b606483106127d357606483816127c9576127c86140de565b5b0492506002810190505b600a83106127e2576001810190505b80915050919050565b50505050565b600980549050600a600083815260200190815260200160002081905550600981908060018154018082558091505060019003906000526020600020016000909190919091505550565b600060016128478461116d565b6128519190614282565b9050600060086000848152602001908152602001600020549050818114612936576000600760008673ffffffffffffffffffffffffffffffffffffffff1673ffffffffffffffffffffffffffffffffffffffff168152602001908152602001600020600084815260200190815260200160002054905080600760008773ffffffffffffffffffffffffffffffffffffffff1673ffffffffffffffffffffffffffffffffffffffff168152602001908152602001600020600084815260200190815260200160002081905550816008600083815260200190815260200160002081905550505b6008600084815260200190815260200160002060009055600760008573ffffffffffffffffffffffffffffffffffffffff1673ffffffffffffffffffffffffffffffffffffffff16815260200190815260200160002060008381526020019081526020016000206000905550505050565b600060016009805490506129bb9190614282565b90506000600a60008481526020019081526020016000205490506000600983815481106129eb576129ea613706565b5b906000526020600020015490508060098381548110612a0d57612a0c613706565b5b906000526020600020018190555081600a600083815260200190815260200160002081905550600a6000858152602001908152602001600020600090556009805480612a5c57612a5b6142b6565b5b6001900381819060005260206000200160009055905550505050565b6000612a838361116d565b905081600760008573ffffffffffffffffffffffffffffffffffffffff1673ffffffffffffffffffffffffffffffffffffffff168152602001908152602001600020600083815260200190815260200160002081905550806008600084815260200190815260200160002081905550505050565b6000808273ffffffffffffffffffffffffffffffffffffffff163b119050919050565b6000604051905090565b600080fd5b600080fd5b60007fffffffff0000000000000000000000000000000000000000000000000000000082169050919050565b612b6381612b2e565b8114612b6e57600080fd5b50565b600081359050612b8081612b5a565b92915050565b600060208284031215612b9c57612b9b612b24565b5b6000612baa84828501612b71565b91505092915050565b60008115159050919050565b612bc881612bb3565b82525050565b6000602082019050612be36000830184612bbf565b92915050565b600081519050919050565b600082825260208201905092915050565b60005b83811015612c23578082015181840152602081019050612c08565b60008484015250505050565b6000601f19601f8301169050919050565b6000612c4b82612be9565b612c558185612bf4565b9350612c65818560208601612c05565b612c6e81612c2f565b840191505092915050565b60006020820190508181036000830152612c938184612c40565b905092915050565b6000819050919050565b612cae81612c9b565b8114612cb957600080fd5b50565b600081359050612ccb81612ca5565b92915050565b600060208284031215612ce757612ce6612b24565b5b6000612cf584828501612cbc565b91505092915050565b600073ffffffffffffffffffffffffffffffffffffffff82169050919050565b6000612d2982612cfe565b9050919050565b612d3981612d1e565b82525050565b6000602082019050612d546000830184612d30565b92915050565b612d6381612d1e565b8114612d6e57600080fd5b50565b600081359050612d8081612d5a565b92915050565b60008060408385031215612d9d57612d9c612b24565b5b6000612dab85828601612d71565b9250506020612dbc85828601612cbc565b9150509250929050565b600081519050919050565b600082825260208201905092915050565b6000819050602082019050919050565b612dfb81612c9b565b82525050565b6000612e0d8383612df2565b60208301905092915050565b6000602082019050919050565b6000612e3182612dc6565b612e3b8185612dd1565b9350612e4683612de2565b8060005b83811015612e77578151612e5e8882612e01565b9750612e6983612e19565b925050600181019050612e4a565b5085935050505092915050565b60006020820190508181036000830152612e9e8184612e26565b905092915050565b612eaf81612c9b565b82525050565b6000602082019050612eca6000830184612ea6565b92915050565b600081519050919050565b600082825260208201905092915050565b6000819050602082019050919050565b600082825260208201905092915050565b6000612f1882612be9565b612f228185612efc565b9350612f32818560208601612c05565b612f3b81612c2f565b840191505092915050565b612f4f81612d1e565b82525050565b600060a083016000830151612f6d6000860182612df2565b5060208301518482036020860152612f858282612f0d565b91505060408301518482036040860152612f9f8282612f0d565b91505060608301518482036060860152612fb98282612f0d565b9150506080830151612fce6080860182612f46565b508091505092915050565b6000612fe58383612f55565b905092915050565b6000602082019050919050565b600061300582612ed0565b61300f8185612edb565b93508360208202850161302185612eec565b8060005b8581101561305d578484038952815161303e8582612fd9565b945061304983612fed565b925060208a01995050600181019050613025565b50829750879550505050505092915050565b600060208201905081810360008301526130898184612ffa565b905092915050565b6000806000606084860312156130aa576130a9612b24565b5b60006130b886828701612d71565b93505060206130c986828701612d71565b92505060406130da86828701612cbc565b9150509250925092565b600060a0820190506130f96000830188612ea6565b818103602083015261310b8187612c40565b9050818103604083015261311f8186612c40565b905081810360608301526131338185612c40565b90506131426080830184612d30565b9695505050505050565b600080fd5b600080fd5b7f4e487b7100000000000000000000000000000000000000000000000000000000600052604160045260246000fd5b61318e82612c2f565b810181811067ffffffffffffffff821117156131ad576131ac613156565b5b80604052505050565b60006131c0612b1a565b90506131cc8282613185565b919050565b600067ffffffffffffffff8211156131ec576131eb613156565b5b6131f582612c2f565b9050602081019050919050565b82818337600083830152505050565b600061322461321f846131d1565b6131b6565b9050828152602081018484840111156132405761323f613151565b5b61324b848285613202565b509392505050565b600082601f8301126132685761326761314c565b5b8135613278848260208601613211565b91505092915050565b6000806000806080858703121561329b5761329a612b24565b5b600085013567ffffffffffffffff8111156132b9576132b8612b29565b5b6132c587828801613253565b945050602085013567ffffffffffffffff8111156132e6576132e5612b29565b5b6132f287828801613253565b935050604085013567ffffffffffffffff81111561331357613312612b29565b5b61331f87828801613253565b925050606061333087828801612d71565b91505092959194509250565b60006020828403121561335257613351612b24565b5b600082013567ffffffffffffffff8111156133705761336f612b29565b5b61337c84828501613253565b91505092915050565b60006020828403121561339b5761339a612b24565b5b60006133a984828501612d71565b91505092915050565b6133bb81612bb3565b81146133c657600080fd5b50565b6000813590506133d8816133b2565b92915050565b600080604083850312156133f5576133f4612b24565b5b600061340385828601612d71565b9250506020613414858286016133c9565b9150509250929050565b600067ffffffffffffffff82111561343957613438613156565b5b61344282612c2f565b9050602081019050919050565b600061346261345d8461341e565b6131b6565b90508281526020810184848401111561347e5761347d613151565b5b613489848285613202565b509392505050565b600082601f8301126134a6576134a561314c565b5b81356134b684826020860161344f565b91505092915050565b600080600080608085870312156134d9576134d8612b24565b5b60006134e787828801612d71565b94505060206134f887828801612d71565b935050604061350987828801612cbc565b925050606085013567ffffffffffffffff81111561352a57613529612b29565b5b61353687828801613491565b91505092959194509250565b6000806040838503121561355957613558612b24565b5b600061356785828601612d71565b925050602061357885828601612d71565b9150509250929050565b7f4e487b7100000000000000000000000000000000000000000000000000000000600052602260045260246000fd5b600060028204905060018216806135c957607f821691505b6020821081036135dc576135db613582565b5b50919050565b7f4552433732313a20617070726f76616c20746f2063757272656e74206f776e6560008201527f7200000000000000000000000000000000000000000000000000000000000000602082015250565b600061363e602183612bf4565b9150613649826135e2565b604082019050919050565b6000602082019050818103600083015261366d81613631565b9050919050565b7f4552433732313a20617070726f76652063616c6c6572206973206e6f7420746f60008201527f6b656e206f776e6572206f7220617070726f76656420666f7220616c6c000000602082015250565b60006136d0603d83612bf4565b91506136db82613674565b604082019050919050565b600060208201905081810360008301526136ff816136c3565b9050919050565b7f4e487b7100000000000000000000000000000000000000000000000000000000600052603260045260246000fd5b7f4e487b7100000000000000000000000000000000000000000000000000000000600052601160045260246000fd5b600061376f82612c9b565b91507fffffffffffffffffffffffffffffffffffffffffffffffffffffffffffffffff82036137a1576137a0613735565b5b600182019050919050565b7f4552433732313a2063616c6c6572206973206e6f7420746f6b656e206f776e6560008201527f72206f7220617070726f76656400000000000000000000000000000000000000602082015250565b6000613808602d83612bf4565b9150613813826137ac565b604082019050919050565b60006020820190508181036000830152613837816137fb565b9050919050565b7f455243373231456e756d657261626c653a206f776e657220696e646578206f7560008201527f74206f6620626f756e6473000000000000000000000000000000000000000000602082015250565b600061389a602b83612bf4565b91506138a58261383e565b604082019050919050565b600060208201905081810360008301526138c98161388d565b9050919050565b60006138db82612c9b565b91506138e683612c9b565b92508282019050808211156138fe576138fd613735565b5b92915050565b60008190508160005260206000209050919050565b60006020601f8301049050919050565b600082821b905092915050565b6000600883026139667fffffffffffffffffffffffffffffffffffffffffffffffffffffffffffffffff82613929565b6139708683613929565b95508019841693508086168417925050509392505050565b6000819050919050565b60006139ad6139a86139a384612c9b565b613988565b612c9b565b9050919050565b6000819050919050565b6139c783613992565b6139db6139d3826139b4565b848454613936565b825550505050565b600090565b6139f06139e3565b6139fb8184846139be565b505050565b5b81811015613a1f57613a146000826139e8565b600181019050613a01565b5050565b601f821115613a6457613a3581613904565b613a3e84613919565b81016020851015613a4d578190505b613a61613a5985613919565b830182613a00565b50505b505050565b600082821c905092915050565b6000613a8760001984600802613a69565b1980831691505092915050565b6000613aa08383613a76565b9150826002028217905092915050565b613ab982612be9565b67ffffffffffffffff811115613ad257613ad1613156565b5b613adc82546135b1565b613ae7828285613a23565b600060209050601f831160018114613b1a5760008415613b08578287015190505b613b128582613a94565b865550613b7a565b601f198416613b2886613904565b60005b82811015613b5057848901518255600182019150602085019450602081019050613b2b565b86831015613b6d5784890151613b69601f891682613a76565b8355505b6001600288020188555050505b505050505050565b60006060820190508181036000830152613b9c8186612c40565b90508181036020830152613bb08185612c40565b90508181036040830152613bc48184612c40565b9050949350505050565b7f455243373231456e756d657261626c653a20676c6f62616c20696e646578206f60008201527f7574206f6620626f756e64730000000000000000000000000000000000000000602082015250565b6000613c2a602c83612bf4565b9150613c3582613bce565b604082019050919050565b60006020820190508181036000830152613c5981613c1d565b9050919050565b7f4552433732313a20696e76616c696420746f6b656e2049440000000000000000600082015250565b6000613c96601883612bf4565b9150613ca182613c60565b602082019050919050565b60006020820190508181036000830152613cc581613c89565b9050919050565b7f4552433732313a2061646472657373207a65726f206973206e6f74206120766160008201527f6c6964206f776e65720000000000000000000000000000000000000000000000602082015250565b6000613d28602983612bf4565b9150613d3382613ccc565b604082019050919050565b60006020820190508181036000830152613d5781613d1b565b9050919050565b600081905092915050565b6000613d7482612be9565b613d7e8185613d5e565b9350613d8e818560208601612c05565b80840191505092915050565b6000613da68285613d69565b9150613db28284613d69565b91508190509392505050565b7f4f776e61626c653a206e6577206f776e657220697320746865207a65726f206160008201527f6464726573730000000000000000000000000000000000000000000000000000602082015250565b6000613e1a602683612bf4565b9150613e2582613dbe565b604082019050919050565b60006020820190508181036000830152613e4981613e0d565b9050919050565b7f4552433732313a207472616e736665722066726f6d20696e636f72726563742060008201527f6f776e6572000000000000000000000000000000000000000000000000000000602082015250565b6000613eac602583612bf4565b9150613eb782613e50565b604082019050919050565b60006020820190508181036000830152613edb81613e9f565b9050919050565b7f4552433732313a207472616e7366657220746f20746865207a65726f2061646460008201527f7265737300000000000000000000000000000000000000000000000000000000602082015250565b6000613f3e602483612bf4565b9150613f4982613ee2565b604082019050919050565b60006020820190508181036000830152613f6d81613f31565b9050919050565b7f4f776e61626c653a2063616c6c6572206973206e6f7420746865206f776e6572600082015250565b6000613faa602083612bf4565b9150613fb582613f74565b602082019050919050565b60006020820190508181036000830152613fd981613f9d565b9050919050565b7f4552433732313a20617070726f766520746f2063616c6c657200000000000000600082015250565b6000614016601983612bf4565b915061402182613fe0565b602082019050919050565b6000602082019050818103600083015261404581614009565b9050919050565b7f4552433732313a207472616e7366657220746f206e6f6e20455243373231526560008201527f63656976657220696d706c656d656e7465720000000000000000000000000000602082015250565b60006140a8603283612bf4565b91506140b38261404c565b604082019050919050565b600060208201905081810360008301526140d78161409b565b9050919050565b7f4e487b7100000000000000000000000000000000000000000000000000000000600052601260045260246000fd5b7f455243373231456e756d657261626c653a20636f6e736563757469766520747260008201527f616e7366657273206e6f7420737570706f727465640000000000000000000000602082015250565b6000614169603583612bf4565b91506141748261410d565b604082019050919050565b600060208201905081810360008301526141988161415c565b9050919050565b600081519050919050565b600082825260208201905092915050565b60006141c68261419f565b6141d081856141aa565b93506141e0818560208601612c05565b6141e981612c2f565b840191505092915050565b60006080820190506142096000830187612d30565b6142166020830186612d30565b6142236040830185612ea6565b818103606083015261423581846141bb565b905095945050505050565b60008151905061424f81612b5a565b92915050565b60006020828403121561426b5761426a612b24565b5b600061427984828501614240565b91505092915050565b600061428d82612c9b565b915061429883612c9b565b92508282039050818111156142b0576142af613735565b5b92915050565b7f4e487b7100000000000000000000000000000000000000000000000000000000600052603160045260246000fdfea26469706673582212207506280f674d872a514ee83c6defe73831427b130a06efa50c904a0eeb8687c064736f6c63430008120033",
  "devdoc": {
    "events": {
      "Approval(address,address,uint256)": {
        "details": "Emitted when `owner` enables `approved` to manage the `tokenId` token."
      },
      "ApprovalForAll(address,address,bool)": {
        "details": "Emitted when `owner` enables or disables (`approved`) `operator` to manage all of its assets."
      },
      "Transfer(address,address,uint256)": {
        "details": "Emitted when `tokenId` token is transferred from `from` to `to`."
      }
    },
    "kind": "dev",
    "methods": {
      "approve(address,uint256)": {
        "details": "See {IERC721-approve}."
      },
      "balanceOf(address)": {
        "details": "See {IERC721-balanceOf}."
      },
      "getApproved(uint256)": {
        "details": "See {IERC721-getApproved}."
      },
      "isApprovedForAll(address,address)": {
        "details": "See {IERC721-isApprovedForAll}."
      },
      "name()": {
        "details": "See {IERC721Metadata-name}."
      },
      "owner()": {
        "details": "Returns the address of the current owner."
      },
      "ownerOf(uint256)": {
        "details": "See {IERC721-ownerOf}."
      },
      "renounceOwnership()": {
        "details": "Leaves the contract without owner. It will not be possible to call `onlyOwner` functions. Can only be called by the current owner. NOTE: Renouncing ownership will leave the contract without an owner, thereby disabling any functionality that is only available to the owner."
      },
      "safeTransferFrom(address,address,uint256)": {
        "details": "See {IERC721-safeTransferFrom}."
      },
      "safeTransferFrom(address,address,uint256,bytes)": {
        "details": "See {IERC721-safeTransferFrom}."
      },
      "setApprovalForAll(address,bool)": {
        "details": "See {IERC721-setApprovalForAll}."
      },
      "supportsInterface(bytes4)": {
        "details": "See {IERC165-supportsInterface}."
      },
      "symbol()": {
        "details": "See {IERC721Metadata-symbol}."
      },
      "tokenByIndex(uint256)": {
        "details": "See {IERC721Enumerable-tokenByIndex}."
      },
      "tokenOfOwnerByIndex(address,uint256)": {
        "details": "See {IERC721Enumerable-tokenOfOwnerByIndex}."
      },
      "tokenURI(uint256)": {
        "details": "See {IERC721Metadata-tokenURI}."
      },
      "totalSupply()": {
        "details": "See {IERC721Enumerable-totalSupply}."
      },
      "transferFrom(address,address,uint256)": {
        "details": "See {IERC721-transferFrom}."
      },
      "transferOwnership(address)": {
        "details": "Transfers ownership of the contract to a new account (`newOwner`). Can only be called by the current owner."
      }
    },
    "version": 1
  },
  "userdoc": {
    "kind": "user",
    "methods": {},
    "version": 1
  },
  "storageLayout": {
    "storage": [
      {
        "astId": 7,
        "contract": "contracts/festival/Peoples.sol:Peoples",
        "label": "_owner",
        "offset": 0,
        "slot": "0",
        "type": "t_address"
      },
      {
        "astId": 138,
        "contract": "contracts/festival/Peoples.sol:Peoples",
        "label": "_name",
        "offset": 0,
        "slot": "1",
        "type": "t_string_storage"
      },
      {
        "astId": 140,
        "contract": "contracts/festival/Peoples.sol:Peoples",
        "label": "_symbol",
        "offset": 0,
        "slot": "2",
        "type": "t_string_storage"
      },
      {
        "astId": 144,
        "contract": "contracts/festival/Peoples.sol:Peoples",
        "label": "_owners",
        "offset": 0,
        "slot": "3",
        "type": "t_mapping(t_uint256,t_address)"
      },
      {
        "astId": 148,
        "contract": "contracts/festival/Peoples.sol:Peoples",
        "label": "_balances",
        "offset": 0,
        "slot": "4",
        "type": "t_mapping(t_address,t_uint256)"
      },
      {
        "astId": 152,
        "contract": "contracts/festival/Peoples.sol:Peoples",
        "label": "_tokenApprovals",
        "offset": 0,
        "slot": "5",
        "type": "t_mapping(t_uint256,t_address)"
      },
      {
        "astId": 158,
        "contract": "contracts/festival/Peoples.sol:Peoples",
        "label": "_operatorApprovals",
        "offset": 0,
        "slot": "6",
        "type": "t_mapping(t_address,t_mapping(t_address,t_bool))"
      },
      {
        "astId": 1188,
        "contract": "contracts/festival/Peoples.sol:Peoples",
        "label": "_ownedTokens",
        "offset": 0,
        "slot": "7",
        "type": "t_mapping(t_address,t_mapping(t_uint256,t_uint256))"
      },
      {
        "astId": 1192,
        "contract": "contracts/festival/Peoples.sol:Peoples",
        "label": "_ownedTokensIndex",
        "offset": 0,
        "slot": "8",
        "type": "t_mapping(t_uint256,t_uint256)"
      },
      {
        "astId": 1195,
        "contract": "contracts/festival/Peoples.sol:Peoples",
        "label": "_allTokens",
        "offset": 0,
        "slot": "9",
        "type": "t_array(t_uint256)dyn_storage"
      },
      {
        "astId": 1199,
        "contract": "contracts/festival/Peoples.sol:Peoples",
        "label": "_allTokensIndex",
        "offset": 0,
        "slot": "10",
        "type": "t_mapping(t_uint256,t_uint256)"
      },
      {
        "astId": 3183,
        "contract": "contracts/festival/Peoples.sol:Peoples",
        "label": "proprietaire",
        "offset": 0,
        "slot": "11",
        "type": "t_address"
      },
      {
        "astId": 3185,
        "contract": "contracts/festival/Peoples.sol:Peoples",
        "label": "baseURI",
        "offset": 0,
        "slot": "12",
        "type": "t_string_storage"
      },
      {
        "astId": 3188,
        "contract": "contracts/festival/Peoples.sol:Peoples",
        "label": "baseExtension",
        "offset": 0,
        "slot": "13",
        "type": "t_string_storage"
      },
      {
        "astId": 3211,
        "contract": "contracts/festival/Peoples.sol:Peoples",
        "label": "listActors",
        "offset": 0,
        "slot": "14",
        "type": "t_array(t_struct(People)3207_storage)dyn_storage"
      },
      {
        "astId": 3215,
        "contract": "contracts/festival/Peoples.sol:Peoples",
        "label": "listDirectors",
        "offset": 0,
        "slot": "15",
        "type": "t_array(t_struct(People)3207_storage)dyn_storage"
      }
    ],
    "types": {
      "t_address": {
        "encoding": "inplace",
        "label": "address",
        "numberOfBytes": "20"
      },
      "t_array(t_struct(People)3207_storage)dyn_storage": {
        "base": "t_struct(People)3207_storage",
        "encoding": "dynamic_array",
        "label": "struct Peoples.People[]",
        "numberOfBytes": "32"
      },
      "t_array(t_uint256)dyn_storage": {
        "base": "t_uint256",
        "encoding": "dynamic_array",
        "label": "uint256[]",
        "numberOfBytes": "32"
      },
      "t_bool": {
        "encoding": "inplace",
        "label": "bool",
        "numberOfBytes": "1"
      },
      "t_mapping(t_address,t_bool)": {
        "encoding": "mapping",
        "key": "t_address",
        "label": "mapping(address => bool)",
        "numberOfBytes": "32",
        "value": "t_bool"
      },
      "t_mapping(t_address,t_mapping(t_address,t_bool))": {
        "encoding": "mapping",
        "key": "t_address",
        "label": "mapping(address => mapping(address => bool))",
        "numberOfBytes": "32",
        "value": "t_mapping(t_address,t_bool)"
      },
      "t_mapping(t_address,t_mapping(t_uint256,t_uint256))": {
        "encoding": "mapping",
        "key": "t_address",
        "label": "mapping(address => mapping(uint256 => uint256))",
        "numberOfBytes": "32",
        "value": "t_mapping(t_uint256,t_uint256)"
      },
      "t_mapping(t_address,t_uint256)": {
        "encoding": "mapping",
        "key": "t_address",
        "label": "mapping(address => uint256)",
        "numberOfBytes": "32",
        "value": "t_uint256"
      },
      "t_mapping(t_uint256,t_address)": {
        "encoding": "mapping",
        "key": "t_uint256",
        "label": "mapping(uint256 => address)",
        "numberOfBytes": "32",
        "value": "t_address"
      },
      "t_mapping(t_uint256,t_uint256)": {
        "encoding": "mapping",
        "key": "t_uint256",
        "label": "mapping(uint256 => uint256)",
        "numberOfBytes": "32",
        "value": "t_uint256"
      },
      "t_string_storage": {
        "encoding": "bytes",
        "label": "string",
        "numberOfBytes": "32"
      },
      "t_struct(People)3207_storage": {
        "encoding": "inplace",
        "label": "struct Peoples.People",
        "members": [
          {
            "astId": 3198,
            "contract": "contracts/festival/Peoples.sol:Peoples",
            "label": "id",
            "offset": 0,
            "slot": "0",
            "type": "t_uint256"
          },
          {
            "astId": 3200,
            "contract": "contracts/festival/Peoples.sol:Peoples",
            "label": "firstName",
            "offset": 0,
            "slot": "1",
            "type": "t_string_storage"
          },
          {
            "astId": 3202,
            "contract": "contracts/festival/Peoples.sol:Peoples",
            "label": "lastName",
            "offset": 0,
            "slot": "2",
            "type": "t_string_storage"
          },
          {
            "astId": 3204,
            "contract": "contracts/festival/Peoples.sol:Peoples",
            "label": "ipfsURI",
            "offset": 0,
            "slot": "3",
            "type": "t_string_storage"
          },
          {
            "astId": 3206,
            "contract": "contracts/festival/Peoples.sol:Peoples",
            "label": "addressPeople",
            "offset": 0,
            "slot": "4",
            "type": "t_address"
          }
        ],
        "numberOfBytes": "160"
      },
      "t_uint256": {
        "encoding": "inplace",
        "label": "uint256",
        "numberOfBytes": "32"
      }
    }
  }
}