{
  "address": "0xE9e69F65e255B5CA7318cc9CE4802798203587FF",
  "abi": [
    {
      "inputs": [],
      "stateMutability": "nonpayable",
      "type": "constructor"
    },
    {
      "anonymous": false,
      "inputs": [
        {
          "indexed": true,
          "internalType": "address",
          "name": "owner",
          "type": "address"
        },
        {
          "indexed": true,
          "internalType": "address",
          "name": "approved",
          "type": "address"
        },
        {
          "indexed": true,
          "internalType": "uint256",
          "name": "tokenId",
          "type": "uint256"
        }
      ],
      "name": "Approval",
      "type": "event"
    },
    {
      "anonymous": false,
      "inputs": [
        {
          "indexed": true,
          "internalType": "address",
          "name": "owner",
          "type": "address"
        },
        {
          "indexed": true,
          "internalType": "address",
          "name": "operator",
          "type": "address"
        },
        {
          "indexed": false,
          "internalType": "bool",
          "name": "approved",
          "type": "bool"
        }
      ],
      "name": "ApprovalForAll",
      "type": "event"
    },
    {
      "anonymous": false,
      "inputs": [
        {
          "indexed": false,
          "internalType": "uint256",
          "name": "id",
          "type": "uint256"
        },
        {
          "indexed": false,
          "internalType": "string",
          "name": "firstName",
          "type": "string"
        },
        {
          "indexed": false,
          "internalType": "string",
          "name": "lastName",
          "type": "string"
        },
        {
          "indexed": false,
          "internalType": "string",
          "name": "ipfsURI",
          "type": "string"
        }
      ],
      "name": "CreateActor",
      "type": "event"
    },
    {
      "anonymous": false,
      "inputs": [
        {
          "indexed": false,
          "internalType": "uint256",
          "name": "id",
          "type": "uint256"
        },
        {
          "indexed": false,
          "internalType": "string",
          "name": "firstName",
          "type": "string"
        },
        {
          "indexed": false,
          "internalType": "string",
          "name": "lastName",
          "type": "string"
        },
        {
          "indexed": false,
          "internalType": "string",
          "name": "ipfsURI",
          "type": "string"
        }
      ],
      "name": "CreateDirector",
      "type": "event"
    },
    {
      "anonymous": false,
      "inputs": [
        {
          "indexed": true,
          "internalType": "address",
          "name": "previousOwner",
          "type": "address"
        },
        {
          "indexed": true,
          "internalType": "address",
          "name": "newOwner",
          "type": "address"
        }
      ],
      "name": "OwnershipTransferred",
      "type": "event"
    },
    {
      "anonymous": false,
      "inputs": [
        {
          "indexed": true,
          "internalType": "address",
          "name": "from",
          "type": "address"
        },
        {
          "indexed": true,
          "internalType": "address",
          "name": "to",
          "type": "address"
        },
        {
          "indexed": true,
          "internalType": "uint256",
          "name": "tokenId",
          "type": "uint256"
        }
      ],
      "name": "Transfer",
      "type": "event"
    },
    {
      "inputs": [
        {
          "internalType": "address",
          "name": "to",
          "type": "address"
        },
        {
          "internalType": "uint256",
          "name": "tokenId",
          "type": "uint256"
        }
      ],
      "name": "approve",
      "outputs": [],
      "stateMutability": "nonpayable",
      "type": "function"
    },
    {
      "inputs": [
        {
          "internalType": "address",
          "name": "owner",
          "type": "address"
        }
      ],
      "name": "balanceOf",
      "outputs": [
        {
          "internalType": "uint256",
          "name": "",
          "type": "uint256"
        }
      ],
      "stateMutability": "view",
      "type": "function"
    },
    {
      "inputs": [],
      "name": "baseExtension",
      "outputs": [
        {
          "internalType": "string",
          "name": "",
          "type": "string"
        }
      ],
      "stateMutability": "view",
      "type": "function"
    },
    {
      "inputs": [],
      "name": "baseURI",
      "outputs": [
        {
          "internalType": "string",
          "name": "",
          "type": "string"
        }
      ],
      "stateMutability": "view",
      "type": "function"
    },
    {
      "inputs": [],
      "name": "getAllActors",
      "outputs": [
        {
          "components": [
            {
              "internalType": "uint256",
              "name": "id",
              "type": "uint256"
            },
            {
              "internalType": "string",
              "name": "firstName",
              "type": "string"
            },
            {
              "internalType": "string",
              "name": "lastName",
              "type": "string"
            },
            {
              "internalType": "string",
              "name": "ipfsURI",
              "type": "string"
            },
            {
              "internalType": "address",
              "name": "addressPeople",
              "type": "address"
            }
          ],
          "internalType": "struct Peoples.People[]",
          "name": "",
          "type": "tuple[]"
        }
      ],
      "stateMutability": "view",
      "type": "function"
    },
    {
      "inputs": [],
      "name": "getAllDirectors",
      "outputs": [
        {
          "components": [
            {
              "internalType": "uint256",
              "name": "id",
              "type": "uint256"
            },
            {
              "internalType": "string",
              "name": "firstName",
              "type": "string"
            },
            {
              "internalType": "string",
              "name": "lastName",
              "type": "string"
            },
            {
              "internalType": "string",
              "name": "ipfsURI",
              "type": "string"
            },
            {
              "internalType": "address",
              "name": "addressPeople",
              "type": "address"
            }
          ],
          "internalType": "struct Peoples.People[]",
          "name": "",
          "type": "tuple[]"
        }
      ],
      "stateMutability": "view",
      "type": "function"
    },
    {
      "inputs": [
        {
          "internalType": "uint256",
          "name": "tokenId",
          "type": "uint256"
        }
      ],
      "name": "getApproved",
      "outputs": [
        {
          "internalType": "address",
          "name": "",
          "type": "address"
        }
      ],
      "stateMutability": "view",
      "type": "function"
    },
    {
      "inputs": [
        {
          "internalType": "address",
          "name": "owner",
          "type": "address"
        },
        {
          "internalType": "address",
          "name": "operator",
          "type": "address"
        }
      ],
      "name": "isApprovedForAll",
      "outputs": [
        {
          "internalType": "bool",
          "name": "",
          "type": "bool"
        }
      ],
      "stateMutability": "view",
      "type": "function"
    },
    {
      "inputs": [
        {
          "internalType": "uint256",
          "name": "",
          "type": "uint256"
        }
      ],
      "name": "listActors",
      "outputs": [
        {
          "internalType": "uint256",
          "name": "id",
          "type": "uint256"
        },
        {
          "internalType": "string",
          "name": "firstName",
          "type": "string"
        },
        {
          "internalType": "string",
          "name": "lastName",
          "type": "string"
        },
        {
          "internalType": "string",
          "name": "ipfsURI",
          "type": "string"
        },
        {
          "internalType": "address",
          "name": "addressPeople",
          "type": "address"
        }
      ],
      "stateMutability": "view",
      "type": "function"
    },
    {
      "inputs": [
        {
          "internalType": "uint256",
          "name": "",
          "type": "uint256"
        }
      ],
      "name": "listDirectors",
      "outputs": [
        {
          "internalType": "uint256",
          "name": "id",
          "type": "uint256"
        },
        {
          "internalType": "string",
          "name": "firstName",
          "type": "string"
        },
        {
          "internalType": "string",
          "name": "lastName",
          "type": "string"
        },
        {
          "internalType": "string",
          "name": "ipfsURI",
          "type": "string"
        },
        {
          "internalType": "address",
          "name": "addressPeople",
          "type": "address"
        }
      ],
      "stateMutability": "view",
      "type": "function"
    },
    {
      "inputs": [
        {
          "internalType": "string",
          "name": "_firstName",
          "type": "string"
        },
        {
          "internalType": "string",
          "name": "_lastName",
          "type": "string"
        },
        {
          "internalType": "string",
          "name": "_ipfsURI",
          "type": "string"
        },
        {
          "internalType": "address",
          "name": "_addressPeople",
          "type": "address"
        }
      ],
      "name": "mintActor",
      "outputs": [],
      "stateMutability": "nonpayable",
      "type": "function"
    },
    {
      "inputs": [
        {
          "internalType": "string",
          "name": "_firstName",
          "type": "string"
        },
        {
          "internalType": "string",
          "name": "_lastName",
          "type": "string"
        },
        {
          "internalType": "string",
          "name": "_ipfsURI",
          "type": "string"
        },
        {
          "internalType": "address",
          "name": "_addressPeople",
          "type": "address"
        }
      ],
      "name": "mintDirector",
      "outputs": [],
      "stateMutability": "nonpayable",
      "type": "function"
    },
    {
      "inputs": [],
      "name": "name",
      "outputs": [
        {
          "internalType": "string",
          "name": "",
          "type": "string"
        }
      ],
      "stateMutability": "view",
      "type": "function"
    },
    {
      "inputs": [],
      "name": "owner",
      "outputs": [
        {
          "internalType": "address",
          "name": "",
          "type": "address"
        }
      ],
      "stateMutability": "view",
      "type": "function"
    },
    {
      "inputs": [
        {
          "internalType": "uint256",
          "name": "tokenId",
          "type": "uint256"
        }
      ],
      "name": "ownerOf",
      "outputs": [
        {
          "internalType": "address",
          "name": "",
          "type": "address"
        }
      ],
      "stateMutability": "view",
      "type": "function"
    },
    {
      "inputs": [],
      "name": "renounceOwnership",
      "outputs": [],
      "stateMutability": "nonpayable",
      "type": "function"
    },
    {
      "inputs": [
        {
          "internalType": "address",
          "name": "from",
          "type": "address"
        },
        {
          "internalType": "address",
          "name": "to",
          "type": "address"
        },
        {
          "internalType": "uint256",
          "name": "tokenId",
          "type": "uint256"
        }
      ],
      "name": "safeTransferFrom",
      "outputs": [],
      "stateMutability": "nonpayable",
      "type": "function"
    },
    {
      "inputs": [
        {
          "internalType": "address",
          "name": "from",
          "type": "address"
        },
        {
          "internalType": "address",
          "name": "to",
          "type": "address"
        },
        {
          "internalType": "uint256",
          "name": "tokenId",
          "type": "uint256"
        },
        {
          "internalType": "bytes",
          "name": "data",
          "type": "bytes"
        }
      ],
      "name": "safeTransferFrom",
      "outputs": [],
      "stateMutability": "nonpayable",
      "type": "function"
    },
    {
      "inputs": [
        {
          "internalType": "address",
          "name": "operator",
          "type": "address"
        },
        {
          "internalType": "bool",
          "name": "approved",
          "type": "bool"
        }
      ],
      "name": "setApprovalForAll",
      "outputs": [],
      "stateMutability": "nonpayable",
      "type": "function"
    },
    {
      "inputs": [
        {
          "internalType": "string",
          "name": "_newBaseURI",
          "type": "string"
        }
      ],
      "name": "setBaseURI",
      "outputs": [],
      "stateMutability": "nonpayable",
      "type": "function"
    },
    {
      "inputs": [
        {
          "internalType": "bytes4",
          "name": "interfaceId",
          "type": "bytes4"
        }
      ],
      "name": "supportsInterface",
      "outputs": [
        {
          "internalType": "bool",
          "name": "",
          "type": "bool"
        }
      ],
      "stateMutability": "view",
      "type": "function"
    },
    {
      "inputs": [],
      "name": "symbol",
      "outputs": [
        {
          "internalType": "string",
          "name": "",
          "type": "string"
        }
      ],
      "stateMutability": "view",
      "type": "function"
    },
    {
      "inputs": [
        {
          "internalType": "uint256",
          "name": "index",
          "type": "uint256"
        }
      ],
      "name": "tokenByIndex",
      "outputs": [
        {
          "internalType": "uint256",
          "name": "",
          "type": "uint256"
        }
      ],
      "stateMutability": "view",
      "type": "function"
    },
    {
      "inputs": [
        {
          "internalType": "address",
          "name": "owner",
          "type": "address"
        },
        {
          "internalType": "uint256",
          "name": "index",
          "type": "uint256"
        }
      ],
      "name": "tokenOfOwnerByIndex",
      "outputs": [
        {
          "internalType": "uint256",
          "name": "",
          "type": "uint256"
        }
      ],
      "stateMutability": "view",
      "type": "function"
    },
    {
      "inputs": [
        {
          "internalType": "uint256",
          "name": "tokenId",
          "type": "uint256"
        }
      ],
      "name": "tokenURI",
      "outputs": [
        {
          "internalType": "string",
          "name": "",
          "type": "string"
        }
      ],
      "stateMutability": "view",
      "type": "function"
    },
    {
      "inputs": [],
      "name": "totalSupply",
      "outputs": [
        {
          "internalType": "uint256",
          "name": "",
          "type": "uint256"
        }
      ],
      "stateMutability": "view",
      "type": "function"
    },
    {
      "inputs": [
        {
          "internalType": "address",
          "name": "from",
          "type": "address"
        },
        {
          "internalType": "address",
          "name": "to",
          "type": "address"
        },
        {
          "internalType": "uint256",
          "name": "tokenId",
          "type": "uint256"
        }
      ],
      "name": "transferFrom",
      "outputs": [],
      "stateMutability": "nonpayable",
      "type": "function"
    },
    {
      "inputs": [
        {
          "internalType": "address",
          "name": "newOwner",
          "type": "address"
        }
      ],
      "name": "transferOwnership",
      "outputs": [],
      "stateMutability": "nonpayable",
      "type": "function"
    }
  ],
  "transactionHash": "0xc0e15ea340955eb7aa90502e716049e71446f805814bf1e39d1ed745281ebf9d",
  "args": [],
  "numDeployments": 5,
  "solcInputHash": "67d8ea9a54871636347ec968c7ce780c",
  "bytecode": "0x60806040526040518060400160405280600581526020017f2e6a736f6e000000000000000000000000000000000000000000000000000000815250600d90816200004a919062000498565b503480156200005857600080fd5b506040518060400160405280601881526020017f50656f706c652047656e657261746564204465764665737400000000000000008152506040518060400160405280600281526020017f4446000000000000000000000000000000000000000000000000000000000000815250620000e5620000d96200015260201b60201c565b6200015a60201b60201c565b8160019081620000f6919062000498565b50806002908162000108919062000498565b50505033600b60006101000a81548173ffffffffffffffffffffffffffffffffffffffff021916908373ffffffffffffffffffffffffffffffffffffffff1602179055506200057f565b600033905090565b60008060009054906101000a900473ffffffffffffffffffffffffffffffffffffffff169050816000806101000a81548173ffffffffffffffffffffffffffffffffffffffff021916908373ffffffffffffffffffffffffffffffffffffffff1602179055508173ffffffffffffffffffffffffffffffffffffffff168173ffffffffffffffffffffffffffffffffffffffff167f8be0079c531659141344cd1fd0a4f28419497f9722a3daafe3b4186f6b6457e060405160405180910390a35050565b600081519050919050565b7f4e487b7100000000000000000000000000000000000000000000000000000000600052604160045260246000fd5b7f4e487b7100000000000000000000000000000000000000000000000000000000600052602260045260246000fd5b60006002820490506001821680620002a057607f821691505b602082108103620002b657620002b562000258565b5b50919050565b60008190508160005260206000209050919050565b60006020601f8301049050919050565b600082821b905092915050565b600060088302620003207fffffffffffffffffffffffffffffffffffffffffffffffffffffffffffffffff82620002e1565b6200032c8683620002e1565b95508019841693508086168417925050509392505050565b6000819050919050565b6000819050919050565b600062000379620003736200036d8462000344565b6200034e565b62000344565b9050919050565b6000819050919050565b620003958362000358565b620003ad620003a48262000380565b848454620002ee565b825550505050565b600090565b620003c4620003b5565b620003d18184846200038a565b505050565b5b81811015620003f957620003ed600082620003ba565b600181019050620003d7565b5050565b601f82111562000448576200041281620002bc565b6200041d84620002d1565b810160208510156200042d578190505b620004456200043c85620002d1565b830182620003d6565b50505b505050565b600082821c905092915050565b60006200046d600019846008026200044d565b1980831691505092915050565b60006200048883836200045a565b9150826002028217905092915050565b620004a3826200021e565b67ffffffffffffffff811115620004bf57620004be62000229565b5b620004cb825462000287565b620004d8828285620003fd565b600060209050601f831160018114620005105760008415620004fb578287015190505b6200050785826200047a565b86555062000577565b601f1984166200052086620002bc565b60005b828110156200054a5784890151825560018201915060208501945060208101905062000523565b868310156200056a578489015162000566601f8916826200045a565b8355505b6001600288020188555050505b505050505050565b6143d6806200058f6000396000f3fe608060405234801561001057600080fd5b50600436106101c45760003560e01c80636352211e116100f957806398e981ea11610097578063c668286211610071578063c66828621461050d578063c87b56dd1461052b578063e985e9c51461055b578063f2fde38b1461058b576101c4565b806398e981ea146104b9578063a22cb465146104d5578063b88d4fde146104f1576101c4565b8063715018a6116100d3578063715018a61461043f5780638da5cb5b14610449578063919de46f1461046757806395d89b411461049b576101c4565b80636352211e146103c15780636c0360eb146103f157806370a082311461040f576101c4565b806323b872dd116101665780633701deaa116101405780633701deaa1461033d57806342842e0e146103595780634f6ccce71461037557806355f804b3146103a5576101c4565b806323b872dd146102bd5780632c417d94146102d95780632f745c591461030d576101c4565b8063095ea7b3116101a2578063095ea7b3146102475780630fe560921461026357806318160ddd146102815780631d010ed51461029f576101c4565b806301ffc9a7146101c957806306fdde03146101f9578063081812fc14610217575b600080fd5b6101e360048036038101906101de9190612d4c565b6105a7565b6040516101f09190612d94565b60405180910390f35b610201610621565b60405161020e9190612e3f565b60405180910390f35b610231600480360381019061022c9190612e97565b6106b3565b60405161023e9190612f05565b60405180910390f35b610261600480360381019061025c9190612f4c565b6106f9565b005b61026b610810565b604051610278919061313a565b60405180910390f35b610289610a85565b604051610296919061316b565b60405180910390f35b6102a7610a92565b6040516102b4919061313a565b60405180910390f35b6102d760048036038101906102d29190613186565b610d07565b005b6102f360048036038101906102ee9190612e97565b610d67565b6040516103049594939291906131d9565b60405180910390f35b61032760048036038101906103229190612f4c565b610f65565b604051610334919061316b565b60405180910390f35b61035760048036038101906103529190613376565b61100a565b005b610373600480360381019061036e9190613186565b611173565b005b61038f600480360381019061038a9190612e97565b611193565b60405161039c919061316b565b60405180910390f35b6103bf60048036038101906103ba9190613431565b611204565b005b6103db60048036038101906103d69190612e97565b61121f565b6040516103e89190612f05565b60405180910390f35b6103f96112a5565b6040516104069190612e3f565b60405180910390f35b6104296004803603810190610424919061347a565b611333565b604051610436919061316b565b60405180910390f35b6104476113ea565b005b6104516113fe565b60405161045e9190612f05565b60405180910390f35b610481600480360381019061047c9190612e97565b611427565b6040516104929594939291906131d9565b60405180910390f35b6104a3611625565b6040516104b09190612e3f565b60405180910390f35b6104d360048036038101906104ce9190613376565b6116b7565b005b6104ef60048036038101906104ea91906134d3565b611820565b005b61050b600480360381019061050691906135b4565b611836565b005b610515611898565b6040516105229190612e3f565b60405180910390f35b61054560048036038101906105409190612e97565b611926565b6040516105529190612e3f565b60405180910390f35b61057560048036038101906105709190613637565b61198e565b6040516105829190612d94565b60405180910390f35b6105a560048036038101906105a0919061347a565b611a22565b005b60007f780e9d63000000000000000000000000000000000000000000000000000000007bffffffffffffffffffffffffffffffffffffffffffffffffffffffff1916827bffffffffffffffffffffffffffffffffffffffffffffffffffffffff1916148061061a575061061982611aa5565b5b9050919050565b606060018054610630906136a6565b80601f016020809104026020016040519081016040528092919081815260200182805461065c906136a6565b80156106a95780601f1061067e576101008083540402835291602001916106a9565b820191906000526020600020905b81548152906001019060200180831161068c57829003601f168201915b5050505050905090565b60006106be82611b87565b6005600083815260200190815260200160002060009054906101000a900473ffffffffffffffffffffffffffffffffffffffff169050919050565b60006107048261121f565b90508073ffffffffffffffffffffffffffffffffffffffff168373ffffffffffffffffffffffffffffffffffffffff1603610774576040517f08c379a000000000000000000000000000000000000000000000000000000000815260040161076b90613749565b60405180910390fd5b8073ffffffffffffffffffffffffffffffffffffffff16610793611bd2565b73ffffffffffffffffffffffffffffffffffffffff1614806107c257506107c1816107bc611bd2565b61198e565b5b610801576040517f08c379a00000000000000000000000000000000000000000000000000000000081526004016107f8906137db565b60405180910390fd5b61080b8383611bda565b505050565b6060600f805480602002602001604051908101604052809291908181526020016000905b82821015610a7c57838290600052602060002090600502016040518060a001604052908160008201548152602001600182018054610871906136a6565b80601f016020809104026020016040519081016040528092919081815260200182805461089d906136a6565b80156108ea5780601f106108bf576101008083540402835291602001916108ea565b820191906000526020600020905b8154815290600101906020018083116108cd57829003601f168201915b50505050508152602001600282018054610903906136a6565b80601f016020809104026020016040519081016040528092919081815260200182805461092f906136a6565b801561097c5780601f106109515761010080835404028352916020019161097c565b820191906000526020600020905b81548152906001019060200180831161095f57829003601f168201915b50505050508152602001600382018054610995906136a6565b80601f01602080910402602001604051908101604052809291908181526020018280546109c1906136a6565b8015610a0e5780601f106109e357610100808354040283529160200191610a0e565b820191906000526020600020905b8154815290600101906020018083116109f157829003601f168201915b505050505081526020016004820160009054906101000a900473ffffffffffffffffffffffffffffffffffffffff1673ffffffffffffffffffffffffffffffffffffffff1673ffffffffffffffffffffffffffffffffffffffff168152505081526020019060010190610834565b50505050905090565b6000600980549050905090565b6060600e805480602002602001604051908101604052809291908181526020016000905b82821015610cfe57838290600052602060002090600502016040518060a001604052908160008201548152602001600182018054610af3906136a6565b80601f0160208091040260200160405190810160405280929190818152602001828054610b1f906136a6565b8015610b6c5780601f10610b4157610100808354040283529160200191610b6c565b820191906000526020600020905b815481529060010190602001808311610b4f57829003601f168201915b50505050508152602001600282018054610b85906136a6565b80601f0160208091040260200160405190810160405280929190818152602001828054610bb1906136a6565b8015610bfe5780601f10610bd357610100808354040283529160200191610bfe565b820191906000526020600020905b815481529060010190602001808311610be157829003601f168201915b50505050508152602001600382018054610c17906136a6565b80601f0160208091040260200160405190810160405280929190818152602001828054610c43906136a6565b8015610c905780601f10610c6557610100808354040283529160200191610c90565b820191906000526020600020905b815481529060010190602001808311610c7357829003601f168201915b505050505081526020016004820160009054906101000a900473ffffffffffffffffffffffffffffffffffffffff1673ffffffffffffffffffffffffffffffffffffffff1673ffffffffffffffffffffffffffffffffffffffff168152505081526020019060010190610ab6565b50505050905090565b610d18610d12611bd2565b82611c93565b610d57576040517f08c379a0000000000000000000000000000000000000000000000000000000008152600401610d4e9061386d565b60405180910390fd5b610d62838383611d28565b505050565b600e8181548110610d7757600080fd5b9060005260206000209060050201600091509050806000015490806001018054610da0906136a6565b80601f0160208091040260200160405190810160405280929190818152602001828054610dcc906136a6565b8015610e195780601f10610dee57610100808354040283529160200191610e19565b820191906000526020600020905b815481529060010190602001808311610dfc57829003601f168201915b505050505090806002018054610e2e906136a6565b80601f0160208091040260200160405190810160405280929190818152602001828054610e5a906136a6565b8015610ea75780601f10610e7c57610100808354040283529160200191610ea7565b820191906000526020600020905b815481529060010190602001808311610e8a57829003601f168201915b505050505090806003018054610ebc906136a6565b80601f0160208091040260200160405190810160405280929190818152602001828054610ee8906136a6565b8015610f355780601f10610f0a57610100808354040283529160200191610f35565b820191906000526020600020905b815481529060010190602001808311610f1857829003601f168201915b5050505050908060040160009054906101000a900473ffffffffffffffffffffffffffffffffffffffff16905085565b6000610f7083611333565b8210610fb1576040517f08c379a0000000000000000000000000000000000000000000000000000000008152600401610fa8906138ff565b60405180910390fd5b600760008473ffffffffffffffffffffffffffffffffffffffff1673ffffffffffffffffffffffffffffffffffffffff168152602001908152602001600020600083815260200190815260200160002054905092915050565b60006001600f8054905061101e919061394e565b905060006040518060a001604052808381526020018781526020018681526020018581526020018473ffffffffffffffffffffffffffffffffffffffff168152509050600f8190806001815401808255809150506001900390600052602060002090600502016000909190919091506000820151816000015560208201518160010190816110ac9190613b2e565b5060408201518160020190816110c29190613b2e565b5060608201518160030190816110d89190613b2e565b5060808201518160040160006101000a81548173ffffffffffffffffffffffffffffffffffffffff021916908373ffffffffffffffffffffffffffffffffffffffff16021790555050507fd69f1fe342a2581bd3d806f0c7cce120af40d258c3facfab802938192aad92f8828260200151836040015184606001516040516111639493929190613c00565b60405180910390a1505050505050565b61118e83838360405180602001604052806000815250611836565b505050565b600061119d610a85565b82106111de576040517f08c379a00000000000000000000000000000000000000000000000000000000081526004016111d590613ccc565b60405180910390fd5b600982815481106111f2576111f1613cec565b5b90600052602060002001549050919050565b61120c612021565b80600c908161121b9190613b2e565b5050565b60008061122b8361209f565b9050600073ffffffffffffffffffffffffffffffffffffffff168173ffffffffffffffffffffffffffffffffffffffff160361129c576040517f08c379a000000000000000000000000000000000000000000000000000000000815260040161129390613d67565b60405180910390fd5b80915050919050565b600c80546112b2906136a6565b80601f01602080910402602001604051908101604052809291908181526020018280546112de906136a6565b801561132b5780601f106113005761010080835404028352916020019161132b565b820191906000526020600020905b81548152906001019060200180831161130e57829003601f168201915b505050505081565b60008073ffffffffffffffffffffffffffffffffffffffff168273ffffffffffffffffffffffffffffffffffffffff16036113a3576040517f08c379a000000000000000000000000000000000000000000000000000000000815260040161139a90613df9565b60405180910390fd5b600460008373ffffffffffffffffffffffffffffffffffffffff1673ffffffffffffffffffffffffffffffffffffffff168152602001908152602001600020549050919050565b6113f2612021565b6113fc60006120dc565b565b60008060009054906101000a900473ffffffffffffffffffffffffffffffffffffffff16905090565b600f818154811061143757600080fd5b9060005260206000209060050201600091509050806000015490806001018054611460906136a6565b80601f016020809104026020016040519081016040528092919081815260200182805461148c906136a6565b80156114d95780601f106114ae576101008083540402835291602001916114d9565b820191906000526020600020905b8154815290600101906020018083116114bc57829003601f168201915b5050505050908060020180546114ee906136a6565b80601f016020809104026020016040519081016040528092919081815260200182805461151a906136a6565b80156115675780601f1061153c57610100808354040283529160200191611567565b820191906000526020600020905b81548152906001019060200180831161154a57829003601f168201915b50505050509080600301805461157c906136a6565b80601f01602080910402602001604051908101604052809291908181526020018280546115a8906136a6565b80156115f55780601f106115ca576101008083540402835291602001916115f5565b820191906000526020600020905b8154815290600101906020018083116115d857829003601f168201915b5050505050908060040160009054906101000a900473ffffffffffffffffffffffffffffffffffffffff16905085565b606060028054611634906136a6565b80601f0160208091040260200160405190810160405280929190818152602001828054611660906136a6565b80156116ad5780601f10611682576101008083540402835291602001916116ad565b820191906000526020600020905b81548152906001019060200180831161169057829003601f168201915b5050505050905090565b60006001600e805490506116cb919061394e565b905060006040518060a001604052808381526020018781526020018681526020018581526020018473ffffffffffffffffffffffffffffffffffffffff168152509050600e8190806001815401808255809150506001900390600052602060002090600502016000909190919091506000820151816000015560208201518160010190816117599190613b2e565b50604082015181600201908161176f9190613b2e565b5060608201518160030190816117859190613b2e565b5060808201518160040160006101000a81548173ffffffffffffffffffffffffffffffffffffffff021916908373ffffffffffffffffffffffffffffffffffffffff16021790555050507f6bd2f2c2028925684d8b4b55091cd5c8459acb090b679260b4eb6759349fec53828260200151836040015184606001516040516118109493929190613c00565b60405180910390a1505050505050565b61183261182b611bd2565b83836121a0565b5050565b611847611841611bd2565b83611c93565b611886576040517f08c379a000000000000000000000000000000000000000000000000000000000815260040161187d9061386d565b60405180910390fd5b6118928484848461230c565b50505050565b600d80546118a5906136a6565b80601f01602080910402602001604051908101604052809291908181526020018280546118d1906136a6565b801561191e5780601f106118f35761010080835404028352916020019161191e565b820191906000526020600020905b81548152906001019060200180831161190157829003601f168201915b505050505081565b606061193182611b87565b600061193b612368565b9050600081511161195b5760405180602001604052806000815250611986565b80611965846123fa565b604051602001611976929190613e55565b6040516020818303038152906040525b915050919050565b6000600660008473ffffffffffffffffffffffffffffffffffffffff1673ffffffffffffffffffffffffffffffffffffffff16815260200190815260200160002060008373ffffffffffffffffffffffffffffffffffffffff1673ffffffffffffffffffffffffffffffffffffffff16815260200190815260200160002060009054906101000a900460ff16905092915050565b611a2a612021565b600073ffffffffffffffffffffffffffffffffffffffff168173ffffffffffffffffffffffffffffffffffffffff1603611a99576040517f08c379a0000000000000000000000000000000000000000000000000000000008152600401611a9090613eeb565b60405180910390fd5b611aa2816120dc565b50565b60007f80ac58cd000000000000000000000000000000000000000000000000000000007bffffffffffffffffffffffffffffffffffffffffffffffffffffffff1916827bffffffffffffffffffffffffffffffffffffffffffffffffffffffff19161480611b7057507f5b5e139f000000000000000000000000000000000000000000000000000000007bffffffffffffffffffffffffffffffffffffffffffffffffffffffff1916827bffffffffffffffffffffffffffffffffffffffffffffffffffffffff1916145b80611b805750611b7f826124c8565b5b9050919050565b611b9081612532565b611bcf576040517f08c379a0000000000000000000000000000000000000000000000000000000008152600401611bc690613d67565b60405180910390fd5b50565b600033905090565b816005600083815260200190815260200160002060006101000a81548173ffffffffffffffffffffffffffffffffffffffff021916908373ffffffffffffffffffffffffffffffffffffffff160217905550808273ffffffffffffffffffffffffffffffffffffffff16611c4d8361121f565b73ffffffffffffffffffffffffffffffffffffffff167f8c5be1e5ebec7d5bd14f71427d1e84f3dd0314c0f7b2291e5b200ac8c7c3b92560405160405180910390a45050565b600080611c9f8361121f565b90508073ffffffffffffffffffffffffffffffffffffffff168473ffffffffffffffffffffffffffffffffffffffff161480611ce15750611ce0818561198e565b5b80611d1f57508373ffffffffffffffffffffffffffffffffffffffff16611d07846106b3565b73ffffffffffffffffffffffffffffffffffffffff16145b91505092915050565b8273ffffffffffffffffffffffffffffffffffffffff16611d488261121f565b73ffffffffffffffffffffffffffffffffffffffff1614611d9e576040517f08c379a0000000000000000000000000000000000000000000000000000000008152600401611d9590613f7d565b60405180910390fd5b600073ffffffffffffffffffffffffffffffffffffffff168273ffffffffffffffffffffffffffffffffffffffff1603611e0d576040517f08c379a0000000000000000000000000000000000000000000000000000000008152600401611e049061400f565b60405180910390fd5b611e1a8383836001612573565b8273ffffffffffffffffffffffffffffffffffffffff16611e3a8261121f565b73ffffffffffffffffffffffffffffffffffffffff1614611e90576040517f08c379a0000000000000000000000000000000000000000000000000000000008152600401611e8790613f7d565b60405180910390fd5b6005600082815260200190815260200160002060006101000a81549073ffffffffffffffffffffffffffffffffffffffff02191690556001600460008573ffffffffffffffffffffffffffffffffffffffff1673ffffffffffffffffffffffffffffffffffffffff168152602001908152602001600020600082825403925050819055506001600460008473ffffffffffffffffffffffffffffffffffffffff1673ffffffffffffffffffffffffffffffffffffffff16815260200190815260200160002060008282540192505081905550816003600083815260200190815260200160002060006101000a81548173ffffffffffffffffffffffffffffffffffffffff021916908373ffffffffffffffffffffffffffffffffffffffff160217905550808273ffffffffffffffffffffffffffffffffffffffff168473ffffffffffffffffffffffffffffffffffffffff167fddf252ad1be2c89b69c2b068fc378daa952ba7f163c4a11628f55a4df523b3ef60405160405180910390a461201c83838360016126d1565b505050565b612029611bd2565b73ffffffffffffffffffffffffffffffffffffffff166120476113fe565b73ffffffffffffffffffffffffffffffffffffffff161461209d576040517f08c379a00000000000000000000000000000000000000000000000000000000081526004016120949061407b565b60405180910390fd5b565b60006003600083815260200190815260200160002060009054906101000a900473ffffffffffffffffffffffffffffffffffffffff169050919050565b60008060009054906101000a900473ffffffffffffffffffffffffffffffffffffffff169050816000806101000a81548173ffffffffffffffffffffffffffffffffffffffff021916908373ffffffffffffffffffffffffffffffffffffffff1602179055508173ffffffffffffffffffffffffffffffffffffffff168173ffffffffffffffffffffffffffffffffffffffff167f8be0079c531659141344cd1fd0a4f28419497f9722a3daafe3b4186f6b6457e060405160405180910390a35050565b8173ffffffffffffffffffffffffffffffffffffffff168373ffffffffffffffffffffffffffffffffffffffff160361220e576040517f08c379a0000000000000000000000000000000000000000000000000000000008152600401612205906140e7565b60405180910390fd5b80600660008573ffffffffffffffffffffffffffffffffffffffff1673ffffffffffffffffffffffffffffffffffffffff16815260200190815260200160002060008473ffffffffffffffffffffffffffffffffffffffff1673ffffffffffffffffffffffffffffffffffffffff16815260200190815260200160002060006101000a81548160ff0219169083151502179055508173ffffffffffffffffffffffffffffffffffffffff168373ffffffffffffffffffffffffffffffffffffffff167f17307eab39ab6107e8899845ad3d59bd9653f200f220920489ca2b5937696c31836040516122ff9190612d94565b60405180910390a3505050565b612317848484611d28565b612323848484846126d7565b612362576040517f08c379a000000000000000000000000000000000000000000000000000000000815260040161235990614179565b60405180910390fd5b50505050565b6060600c8054612377906136a6565b80601f01602080910402602001604051908101604052809291908181526020018280546123a3906136a6565b80156123f05780601f106123c5576101008083540402835291602001916123f0565b820191906000526020600020905b8154815290600101906020018083116123d357829003601f168201915b5050505050905090565b6060600060016124098461285e565b01905060008167ffffffffffffffff8111156124285761242761324b565b5b6040519080825280601f01601f19166020018201604052801561245a5781602001600182028036833780820191505090505b509050600082602001820190505b6001156124bd578080600190039150507f3031323334353637383961626364656600000000000000000000000000000000600a86061a8153600a85816124b1576124b0614199565b5b04945060008503612468575b819350505050919050565b60007f01ffc9a7000000000000000000000000000000000000000000000000000000007bffffffffffffffffffffffffffffffffffffffffffffffffffffffff1916827bffffffffffffffffffffffffffffffffffffffffffffffffffffffff1916149050919050565b60008073ffffffffffffffffffffffffffffffffffffffff166125548361209f565b73ffffffffffffffffffffffffffffffffffffffff1614159050919050565b61257f848484846129b1565b60018111156125c3576040517f08c379a00000000000000000000000000000000000000000000000000000000081526004016125ba9061423a565b60405180910390fd5b6000829050600073ffffffffffffffffffffffffffffffffffffffff168573ffffffffffffffffffffffffffffffffffffffff160361260a57612605816129b7565b612649565b8373ffffffffffffffffffffffffffffffffffffffff168573ffffffffffffffffffffffffffffffffffffffff1614612648576126478582612a00565b5b5b600073ffffffffffffffffffffffffffffffffffffffff168473ffffffffffffffffffffffffffffffffffffffff160361268b5761268681612b6d565b6126ca565b8473ffffffffffffffffffffffffffffffffffffffff168473ffffffffffffffffffffffffffffffffffffffff16146126c9576126c88482612c3e565b5b5b5050505050565b50505050565b60006126f88473ffffffffffffffffffffffffffffffffffffffff16612cbd565b15612851578373ffffffffffffffffffffffffffffffffffffffff1663150b7a02612721611bd2565b8786866040518563ffffffff1660e01b815260040161274394939291906142af565b6020604051808303816000875af192505050801561277f57506040513d601f19601f8201168201806040525081019061277c9190614310565b60015b612801573d80600081146127af576040519150601f19603f3d011682016040523d82523d6000602084013e6127b4565b606091505b5060008151036127f9576040517f08c379a00000000000000000000000000000000000000000000000000000000081526004016127f090614179565b60405180910390fd5b805181602001fd5b63150b7a0260e01b7bffffffffffffffffffffffffffffffffffffffffffffffffffffffff1916817bffffffffffffffffffffffffffffffffffffffffffffffffffffffff191614915050612856565b600190505b949350505050565b600080600090507a184f03e93ff9f4daa797ed6e38ed64bf6a1f01000000000000000083106128bc577a184f03e93ff9f4daa797ed6e38ed64bf6a1f01000000000000000083816128b2576128b1614199565b5b0492506040810190505b6d04ee2d6d415b85acef810000000083106128f9576d04ee2d6d415b85acef810000000083816128ef576128ee614199565b5b0492506020810190505b662386f26fc10000831061292857662386f26fc10000838161291e5761291d614199565b5b0492506010810190505b6305f5e1008310612951576305f5e100838161294757612946614199565b5b0492506008810190505b612710831061297657612710838161296c5761296b614199565b5b0492506004810190505b60648310612999576064838161298f5761298e614199565b5b0492506002810190505b600a83106129a8576001810190505b80915050919050565b50505050565b600980549050600a600083815260200190815260200160002081905550600981908060018154018082558091505060019003906000526020600020016000909190919091505550565b60006001612a0d84611333565b612a17919061433d565b9050600060086000848152602001908152602001600020549050818114612afc576000600760008673ffffffffffffffffffffffffffffffffffffffff1673ffffffffffffffffffffffffffffffffffffffff168152602001908152602001600020600084815260200190815260200160002054905080600760008773ffffffffffffffffffffffffffffffffffffffff1673ffffffffffffffffffffffffffffffffffffffff168152602001908152602001600020600084815260200190815260200160002081905550816008600083815260200190815260200160002081905550505b6008600084815260200190815260200160002060009055600760008573ffffffffffffffffffffffffffffffffffffffff1673ffffffffffffffffffffffffffffffffffffffff16815260200190815260200160002060008381526020019081526020016000206000905550505050565b60006001600980549050612b81919061433d565b90506000600a6000848152602001908152602001600020549050600060098381548110612bb157612bb0613cec565b5b906000526020600020015490508060098381548110612bd357612bd2613cec565b5b906000526020600020018190555081600a600083815260200190815260200160002081905550600a6000858152602001908152602001600020600090556009805480612c2257612c21614371565b5b6001900381819060005260206000200160009055905550505050565b6000612c4983611333565b905081600760008573ffffffffffffffffffffffffffffffffffffffff1673ffffffffffffffffffffffffffffffffffffffff168152602001908152602001600020600083815260200190815260200160002081905550806008600084815260200190815260200160002081905550505050565b6000808273ffffffffffffffffffffffffffffffffffffffff163b119050919050565b6000604051905090565b600080fd5b600080fd5b60007fffffffff0000000000000000000000000000000000000000000000000000000082169050919050565b612d2981612cf4565b8114612d3457600080fd5b50565b600081359050612d4681612d20565b92915050565b600060208284031215612d6257612d61612cea565b5b6000612d7084828501612d37565b91505092915050565b60008115159050919050565b612d8e81612d79565b82525050565b6000602082019050612da96000830184612d85565b92915050565b600081519050919050565b600082825260208201905092915050565b60005b83811015612de9578082015181840152602081019050612dce565b60008484015250505050565b6000601f19601f8301169050919050565b6000612e1182612daf565b612e1b8185612dba565b9350612e2b818560208601612dcb565b612e3481612df5565b840191505092915050565b60006020820190508181036000830152612e598184612e06565b905092915050565b6000819050919050565b612e7481612e61565b8114612e7f57600080fd5b50565b600081359050612e9181612e6b565b92915050565b600060208284031215612ead57612eac612cea565b5b6000612ebb84828501612e82565b91505092915050565b600073ffffffffffffffffffffffffffffffffffffffff82169050919050565b6000612eef82612ec4565b9050919050565b612eff81612ee4565b82525050565b6000602082019050612f1a6000830184612ef6565b92915050565b612f2981612ee4565b8114612f3457600080fd5b50565b600081359050612f4681612f20565b92915050565b60008060408385031215612f6357612f62612cea565b5b6000612f7185828601612f37565b9250506020612f8285828601612e82565b9150509250929050565b600081519050919050565b600082825260208201905092915050565b6000819050602082019050919050565b612fc181612e61565b82525050565b600082825260208201905092915050565b6000612fe382612daf565b612fed8185612fc7565b9350612ffd818560208601612dcb565b61300681612df5565b840191505092915050565b61301a81612ee4565b82525050565b600060a0830160008301516130386000860182612fb8565b50602083015184820360208601526130508282612fd8565b9150506040830151848203604086015261306a8282612fd8565b915050606083015184820360608601526130848282612fd8565b91505060808301516130996080860182613011565b508091505092915050565b60006130b08383613020565b905092915050565b6000602082019050919050565b60006130d082612f8c565b6130da8185612f97565b9350836020820285016130ec85612fa8565b8060005b85811015613128578484038952815161310985826130a4565b9450613114836130b8565b925060208a019950506001810190506130f0565b50829750879550505050505092915050565b6000602082019050818103600083015261315481846130c5565b905092915050565b61316581612e61565b82525050565b6000602082019050613180600083018461315c565b92915050565b60008060006060848603121561319f5761319e612cea565b5b60006131ad86828701612f37565b93505060206131be86828701612f37565b92505060406131cf86828701612e82565b9150509250925092565b600060a0820190506131ee600083018861315c565b81810360208301526132008187612e06565b905081810360408301526132148186612e06565b905081810360608301526132288185612e06565b90506132376080830184612ef6565b9695505050505050565b600080fd5b600080fd5b7f4e487b7100000000000000000000000000000000000000000000000000000000600052604160045260246000fd5b61328382612df5565b810181811067ffffffffffffffff821117156132a2576132a161324b565b5b80604052505050565b60006132b5612ce0565b90506132c1828261327a565b919050565b600067ffffffffffffffff8211156132e1576132e061324b565b5b6132ea82612df5565b9050602081019050919050565b82818337600083830152505050565b6000613319613314846132c6565b6132ab565b90508281526020810184848401111561333557613334613246565b5b6133408482856132f7565b509392505050565b600082601f83011261335d5761335c613241565b5b813561336d848260208601613306565b91505092915050565b600080600080608085870312156133905761338f612cea565b5b600085013567ffffffffffffffff8111156133ae576133ad612cef565b5b6133ba87828801613348565b945050602085013567ffffffffffffffff8111156133db576133da612cef565b5b6133e787828801613348565b935050604085013567ffffffffffffffff81111561340857613407612cef565b5b61341487828801613348565b925050606061342587828801612f37565b91505092959194509250565b60006020828403121561344757613446612cea565b5b600082013567ffffffffffffffff81111561346557613464612cef565b5b61347184828501613348565b91505092915050565b6000602082840312156134905761348f612cea565b5b600061349e84828501612f37565b91505092915050565b6134b081612d79565b81146134bb57600080fd5b50565b6000813590506134cd816134a7565b92915050565b600080604083850312156134ea576134e9612cea565b5b60006134f885828601612f37565b9250506020613509858286016134be565b9150509250929050565b600067ffffffffffffffff82111561352e5761352d61324b565b5b61353782612df5565b9050602081019050919050565b600061355761355284613513565b6132ab565b90508281526020810184848401111561357357613572613246565b5b61357e8482856132f7565b509392505050565b600082601f83011261359b5761359a613241565b5b81356135ab848260208601613544565b91505092915050565b600080600080608085870312156135ce576135cd612cea565b5b60006135dc87828801612f37565b94505060206135ed87828801612f37565b93505060406135fe87828801612e82565b925050606085013567ffffffffffffffff81111561361f5761361e612cef565b5b61362b87828801613586565b91505092959194509250565b6000806040838503121561364e5761364d612cea565b5b600061365c85828601612f37565b925050602061366d85828601612f37565b9150509250929050565b7f4e487b7100000000000000000000000000000000000000000000000000000000600052602260045260246000fd5b600060028204905060018216806136be57607f821691505b6020821081036136d1576136d0613677565b5b50919050565b7f4552433732313a20617070726f76616c20746f2063757272656e74206f776e6560008201527f7200000000000000000000000000000000000000000000000000000000000000602082015250565b6000613733602183612dba565b915061373e826136d7565b604082019050919050565b6000602082019050818103600083015261376281613726565b9050919050565b7f4552433732313a20617070726f76652063616c6c6572206973206e6f7420746f60008201527f6b656e206f776e6572206f7220617070726f76656420666f7220616c6c000000602082015250565b60006137c5603d83612dba565b91506137d082613769565b604082019050919050565b600060208201905081810360008301526137f4816137b8565b9050919050565b7f4552433732313a2063616c6c6572206973206e6f7420746f6b656e206f776e6560008201527f72206f7220617070726f76656400000000000000000000000000000000000000602082015250565b6000613857602d83612dba565b9150613862826137fb565b604082019050919050565b600060208201905081810360008301526138868161384a565b9050919050565b7f455243373231456e756d657261626c653a206f776e657220696e646578206f7560008201527f74206f6620626f756e6473000000000000000000000000000000000000000000602082015250565b60006138e9602b83612dba565b91506138f48261388d565b604082019050919050565b60006020820190508181036000830152613918816138dc565b9050919050565b7f4e487b7100000000000000000000000000000000000000000000000000000000600052601160045260246000fd5b600061395982612e61565b915061396483612e61565b925082820190508082111561397c5761397b61391f565b5b92915050565b60008190508160005260206000209050919050565b60006020601f8301049050919050565b600082821b905092915050565b6000600883026139e47fffffffffffffffffffffffffffffffffffffffffffffffffffffffffffffffff826139a7565b6139ee86836139a7565b95508019841693508086168417925050509392505050565b6000819050919050565b6000613a2b613a26613a2184612e61565b613a06565b612e61565b9050919050565b6000819050919050565b613a4583613a10565b613a59613a5182613a32565b8484546139b4565b825550505050565b600090565b613a6e613a61565b613a79818484613a3c565b505050565b5b81811015613a9d57613a92600082613a66565b600181019050613a7f565b5050565b601f821115613ae257613ab381613982565b613abc84613997565b81016020851015613acb578190505b613adf613ad785613997565b830182613a7e565b50505b505050565b600082821c905092915050565b6000613b0560001984600802613ae7565b1980831691505092915050565b6000613b1e8383613af4565b9150826002028217905092915050565b613b3782612daf565b67ffffffffffffffff811115613b5057613b4f61324b565b5b613b5a82546136a6565b613b65828285613aa1565b600060209050601f831160018114613b985760008415613b86578287015190505b613b908582613b12565b865550613bf8565b601f198416613ba686613982565b60005b82811015613bce57848901518255600182019150602085019450602081019050613ba9565b86831015613beb5784890151613be7601f891682613af4565b8355505b6001600288020188555050505b505050505050565b6000608082019050613c15600083018761315c565b8181036020830152613c278186612e06565b90508181036040830152613c3b8185612e06565b90508181036060830152613c4f8184612e06565b905095945050505050565b7f455243373231456e756d657261626c653a20676c6f62616c20696e646578206f60008201527f7574206f6620626f756e64730000000000000000000000000000000000000000602082015250565b6000613cb6602c83612dba565b9150613cc182613c5a565b604082019050919050565b60006020820190508181036000830152613ce581613ca9565b9050919050565b7f4e487b7100000000000000000000000000000000000000000000000000000000600052603260045260246000fd5b7f4552433732313a20696e76616c696420746f6b656e2049440000000000000000600082015250565b6000613d51601883612dba565b9150613d5c82613d1b565b602082019050919050565b60006020820190508181036000830152613d8081613d44565b9050919050565b7f4552433732313a2061646472657373207a65726f206973206e6f74206120766160008201527f6c6964206f776e65720000000000000000000000000000000000000000000000602082015250565b6000613de3602983612dba565b9150613dee82613d87565b604082019050919050565b60006020820190508181036000830152613e1281613dd6565b9050919050565b600081905092915050565b6000613e2f82612daf565b613e398185613e19565b9350613e49818560208601612dcb565b80840191505092915050565b6000613e618285613e24565b9150613e6d8284613e24565b91508190509392505050565b7f4f776e61626c653a206e6577206f776e657220697320746865207a65726f206160008201527f6464726573730000000000000000000000000000000000000000000000000000602082015250565b6000613ed5602683612dba565b9150613ee082613e79565b604082019050919050565b60006020820190508181036000830152613f0481613ec8565b9050919050565b7f4552433732313a207472616e736665722066726f6d20696e636f72726563742060008201527f6f776e6572000000000000000000000000000000000000000000000000000000602082015250565b6000613f67602583612dba565b9150613f7282613f0b565b604082019050919050565b60006020820190508181036000830152613f9681613f5a565b9050919050565b7f4552433732313a207472616e7366657220746f20746865207a65726f2061646460008201527f7265737300000000000000000000000000000000000000000000000000000000602082015250565b6000613ff9602483612dba565b915061400482613f9d565b604082019050919050565b6000602082019050818103600083015261402881613fec565b9050919050565b7f4f776e61626c653a2063616c6c6572206973206e6f7420746865206f776e6572600082015250565b6000614065602083612dba565b91506140708261402f565b602082019050919050565b6000602082019050818103600083015261409481614058565b9050919050565b7f4552433732313a20617070726f766520746f2063616c6c657200000000000000600082015250565b60006140d1601983612dba565b91506140dc8261409b565b602082019050919050565b60006020820190508181036000830152614100816140c4565b9050919050565b7f4552433732313a207472616e7366657220746f206e6f6e20455243373231526560008201527f63656976657220696d706c656d656e7465720000000000000000000000000000602082015250565b6000614163603283612dba565b915061416e82614107565b604082019050919050565b6000602082019050818103600083015261419281614156565b9050919050565b7f4e487b7100000000000000000000000000000000000000000000000000000000600052601260045260246000fd5b7f455243373231456e756d657261626c653a20636f6e736563757469766520747260008201527f616e7366657273206e6f7420737570706f727465640000000000000000000000602082015250565b6000614224603583612dba565b915061422f826141c8565b604082019050919050565b6000602082019050818103600083015261425381614217565b9050919050565b600081519050919050565b600082825260208201905092915050565b60006142818261425a565b61428b8185614265565b935061429b818560208601612dcb565b6142a481612df5565b840191505092915050565b60006080820190506142c46000830187612ef6565b6142d16020830186612ef6565b6142de604083018561315c565b81810360608301526142f08184614276565b905095945050505050565b60008151905061430a81612d20565b92915050565b60006020828403121561432657614325612cea565b5b6000614334848285016142fb565b91505092915050565b600061434882612e61565b915061435383612e61565b925082820390508181111561436b5761436a61391f565b5b92915050565b7f4e487b7100000000000000000000000000000000000000000000000000000000600052603160045260246000fdfea264697066735822122042d44549c5fe9142459c9480e1282265477e9c10e862cc5b717c2b8287c92f6064736f6c63430008120033",
  "devdoc": {
    "events": {
      "Approval(address,address,uint256)": {
        "details": "Emitted when `owner` enables `approved` to manage the `tokenId` token."
      },
      "ApprovalForAll(address,address,bool)": {
        "details": "Emitted when `owner` enables or disables (`approved`) `operator` to manage all of its assets."
      },
      "Transfer(address,address,uint256)": {
        "details": "Emitted when `tokenId` token is transferred from `from` to `to`."
      }
    },
    "kind": "dev",
    "methods": {
      "approve(address,uint256)": {
        "details": "See {IERC721-approve}."
      },
      "balanceOf(address)": {
        "details": "See {IERC721-balanceOf}."
      },
      "getApproved(uint256)": {
        "details": "See {IERC721-getApproved}."
      },
      "isApprovedForAll(address,address)": {
        "details": "See {IERC721-isApprovedForAll}."
      },
      "name()": {
        "details": "See {IERC721Metadata-name}."
      },
      "owner()": {
        "details": "Returns the address of the current owner."
      },
      "ownerOf(uint256)": {
        "details": "See {IERC721-ownerOf}."
      },
      "renounceOwnership()": {
        "details": "Leaves the contract without owner. It will not be possible to call `onlyOwner` functions. Can only be called by the current owner. NOTE: Renouncing ownership will leave the contract without an owner, thereby disabling any functionality that is only available to the owner."
      },
      "safeTransferFrom(address,address,uint256)": {
        "details": "See {IERC721-safeTransferFrom}."
      },
      "safeTransferFrom(address,address,uint256,bytes)": {
        "details": "See {IERC721-safeTransferFrom}."
      },
      "setApprovalForAll(address,bool)": {
        "details": "See {IERC721-setApprovalForAll}."
      },
      "supportsInterface(bytes4)": {
        "details": "See {IERC165-supportsInterface}."
      },
      "symbol()": {
        "details": "See {IERC721Metadata-symbol}."
      },
      "tokenByIndex(uint256)": {
        "details": "See {IERC721Enumerable-tokenByIndex}."
      },
      "tokenOfOwnerByIndex(address,uint256)": {
        "details": "See {IERC721Enumerable-tokenOfOwnerByIndex}."
      },
      "tokenURI(uint256)": {
        "details": "See {IERC721Metadata-tokenURI}."
      },
      "totalSupply()": {
        "details": "See {IERC721Enumerable-totalSupply}."
      },
      "transferFrom(address,address,uint256)": {
        "details": "See {IERC721-transferFrom}."
      },
      "transferOwnership(address)": {
        "details": "Transfers ownership of the contract to a new account (`newOwner`). Can only be called by the current owner."
      }
    },
    "version": 1
  },
  "userdoc": {
    "kind": "user",
    "methods": {},
    "version": 1
  },
  "storageLayout": {
    "storage": [
      {
        "astId": 7,
        "contract": "contracts/festival/Peoples.sol:Peoples",
        "label": "_owner",
        "offset": 0,
        "slot": "0",
        "type": "t_address"
      },
      {
        "astId": 138,
        "contract": "contracts/festival/Peoples.sol:Peoples",
        "label": "_name",
        "offset": 0,
        "slot": "1",
        "type": "t_string_storage"
      },
      {
        "astId": 140,
        "contract": "contracts/festival/Peoples.sol:Peoples",
        "label": "_symbol",
        "offset": 0,
        "slot": "2",
        "type": "t_string_storage"
      },
      {
        "astId": 144,
        "contract": "contracts/festival/Peoples.sol:Peoples",
        "label": "_owners",
        "offset": 0,
        "slot": "3",
        "type": "t_mapping(t_uint256,t_address)"
      },
      {
        "astId": 148,
        "contract": "contracts/festival/Peoples.sol:Peoples",
        "label": "_balances",
        "offset": 0,
        "slot": "4",
        "type": "t_mapping(t_address,t_uint256)"
      },
      {
        "astId": 152,
        "contract": "contracts/festival/Peoples.sol:Peoples",
        "label": "_tokenApprovals",
        "offset": 0,
        "slot": "5",
        "type": "t_mapping(t_uint256,t_address)"
      },
      {
        "astId": 158,
        "contract": "contracts/festival/Peoples.sol:Peoples",
        "label": "_operatorApprovals",
        "offset": 0,
        "slot": "6",
        "type": "t_mapping(t_address,t_mapping(t_address,t_bool))"
      },
      {
        "astId": 1188,
        "contract": "contracts/festival/Peoples.sol:Peoples",
        "label": "_ownedTokens",
        "offset": 0,
        "slot": "7",
        "type": "t_mapping(t_address,t_mapping(t_uint256,t_uint256))"
      },
      {
        "astId": 1192,
        "contract": "contracts/festival/Peoples.sol:Peoples",
        "label": "_ownedTokensIndex",
        "offset": 0,
        "slot": "8",
        "type": "t_mapping(t_uint256,t_uint256)"
      },
      {
        "astId": 1195,
        "contract": "contracts/festival/Peoples.sol:Peoples",
        "label": "_allTokens",
        "offset": 0,
        "slot": "9",
        "type": "t_array(t_uint256)dyn_storage"
      },
      {
        "astId": 1199,
        "contract": "contracts/festival/Peoples.sol:Peoples",
        "label": "_allTokensIndex",
        "offset": 0,
        "slot": "10",
        "type": "t_mapping(t_uint256,t_uint256)"
      },
      {
        "astId": 3311,
        "contract": "contracts/festival/Peoples.sol:Peoples",
        "label": "proprietaire",
        "offset": 0,
        "slot": "11",
        "type": "t_address"
      },
      {
        "astId": 3313,
        "contract": "contracts/festival/Peoples.sol:Peoples",
        "label": "baseURI",
        "offset": 0,
        "slot": "12",
        "type": "t_string_storage"
      },
      {
        "astId": 3316,
        "contract": "contracts/festival/Peoples.sol:Peoples",
        "label": "baseExtension",
        "offset": 0,
        "slot": "13",
        "type": "t_string_storage"
      },
      {
        "astId": 3351,
        "contract": "contracts/festival/Peoples.sol:Peoples",
        "label": "listActors",
        "offset": 0,
        "slot": "14",
        "type": "t_array(t_struct(People)3347_storage)dyn_storage"
      },
      {
        "astId": 3355,
        "contract": "contracts/festival/Peoples.sol:Peoples",
        "label": "listDirectors",
        "offset": 0,
        "slot": "15",
        "type": "t_array(t_struct(People)3347_storage)dyn_storage"
      }
    ],
    "types": {
      "t_address": {
        "encoding": "inplace",
        "label": "address",
        "numberOfBytes": "20"
      },
      "t_array(t_struct(People)3347_storage)dyn_storage": {
        "base": "t_struct(People)3347_storage",
        "encoding": "dynamic_array",
        "label": "struct Peoples.People[]",
        "numberOfBytes": "32"
      },
      "t_array(t_uint256)dyn_storage": {
        "base": "t_uint256",
        "encoding": "dynamic_array",
        "label": "uint256[]",
        "numberOfBytes": "32"
      },
      "t_bool": {
        "encoding": "inplace",
        "label": "bool",
        "numberOfBytes": "1"
      },
      "t_mapping(t_address,t_bool)": {
        "encoding": "mapping",
        "key": "t_address",
        "label": "mapping(address => bool)",
        "numberOfBytes": "32",
        "value": "t_bool"
      },
      "t_mapping(t_address,t_mapping(t_address,t_bool))": {
        "encoding": "mapping",
        "key": "t_address",
        "label": "mapping(address => mapping(address => bool))",
        "numberOfBytes": "32",
        "value": "t_mapping(t_address,t_bool)"
      },
      "t_mapping(t_address,t_mapping(t_uint256,t_uint256))": {
        "encoding": "mapping",
        "key": "t_address",
        "label": "mapping(address => mapping(uint256 => uint256))",
        "numberOfBytes": "32",
        "value": "t_mapping(t_uint256,t_uint256)"
      },
      "t_mapping(t_address,t_uint256)": {
        "encoding": "mapping",
        "key": "t_address",
        "label": "mapping(address => uint256)",
        "numberOfBytes": "32",
        "value": "t_uint256"
      },
      "t_mapping(t_uint256,t_address)": {
        "encoding": "mapping",
        "key": "t_uint256",
        "label": "mapping(uint256 => address)",
        "numberOfBytes": "32",
        "value": "t_address"
      },
      "t_mapping(t_uint256,t_uint256)": {
        "encoding": "mapping",
        "key": "t_uint256",
        "label": "mapping(uint256 => uint256)",
        "numberOfBytes": "32",
        "value": "t_uint256"
      },
      "t_string_storage": {
        "encoding": "bytes",
        "label": "string",
        "numberOfBytes": "32"
      },
      "t_struct(People)3347_storage": {
        "encoding": "inplace",
        "label": "struct Peoples.People",
        "members": [
          {
            "astId": 3338,
            "contract": "contracts/festival/Peoples.sol:Peoples",
            "label": "id",
            "offset": 0,
            "slot": "0",
            "type": "t_uint256"
          },
          {
            "astId": 3340,
            "contract": "contracts/festival/Peoples.sol:Peoples",
            "label": "firstName",
            "offset": 0,
            "slot": "1",
            "type": "t_string_storage"
          },
          {
            "astId": 3342,
            "contract": "contracts/festival/Peoples.sol:Peoples",
            "label": "lastName",
            "offset": 0,
            "slot": "2",
            "type": "t_string_storage"
          },
          {
            "astId": 3344,
            "contract": "contracts/festival/Peoples.sol:Peoples",
            "label": "ipfsURI",
            "offset": 0,
            "slot": "3",
            "type": "t_string_storage"
          },
          {
            "astId": 3346,
            "contract": "contracts/festival/Peoples.sol:Peoples",
            "label": "addressPeople",
            "offset": 0,
            "slot": "4",
            "type": "t_address"
          }
        ],
        "numberOfBytes": "160"
      },
      "t_uint256": {
        "encoding": "inplace",
        "label": "uint256",
        "numberOfBytes": "32"
      }
    }
  }
}