{
  "address": "0x62568F0c59A6d8d4D8020738F0C4A440A7bc2682",
  "abi": [
    {
      "inputs": [
        {
          "internalType": "string",
          "name": "name",
          "type": "string"
        },
        {
          "internalType": "string",
          "name": "symbol",
          "type": "string"
        }
      ],
      "stateMutability": "nonpayable",
      "type": "constructor"
    },
    {
      "anonymous": false,
      "inputs": [
        {
          "indexed": true,
          "internalType": "address",
          "name": "owner",
          "type": "address"
        },
        {
          "indexed": true,
          "internalType": "address",
          "name": "approved",
          "type": "address"
        },
        {
          "indexed": true,
          "internalType": "uint256",
          "name": "tokenId",
          "type": "uint256"
        }
      ],
      "name": "Approval",
      "type": "event"
    },
    {
      "anonymous": false,
      "inputs": [
        {
          "indexed": true,
          "internalType": "address",
          "name": "owner",
          "type": "address"
        },
        {
          "indexed": true,
          "internalType": "address",
          "name": "operator",
          "type": "address"
        },
        {
          "indexed": false,
          "internalType": "bool",
          "name": "approved",
          "type": "bool"
        }
      ],
      "name": "ApprovalForAll",
      "type": "event"
    },
    {
      "anonymous": false,
      "inputs": [
        {
          "indexed": false,
          "internalType": "uint256",
          "name": "competitionId",
          "type": "uint256"
        }
      ],
      "name": "CompetitionSessionRegistered",
      "type": "event"
    },
    {
      "anonymous": false,
      "inputs": [
        {
          "indexed": true,
          "internalType": "address",
          "name": "previousOwner",
          "type": "address"
        },
        {
          "indexed": true,
          "internalType": "address",
          "name": "newOwner",
          "type": "address"
        }
      ],
      "name": "OwnershipTransferred",
      "type": "event"
    },
    {
      "anonymous": false,
      "inputs": [
        {
          "indexed": true,
          "internalType": "address",
          "name": "from",
          "type": "address"
        },
        {
          "indexed": true,
          "internalType": "address",
          "name": "to",
          "type": "address"
        },
        {
          "indexed": true,
          "internalType": "uint256",
          "name": "tokenId",
          "type": "uint256"
        }
      ],
      "name": "Transfer",
      "type": "event"
    },
    {
      "anonymous": false,
      "inputs": [
        {
          "indexed": false,
          "internalType": "uint256",
          "name": "competitionId",
          "type": "uint256"
        },
        {
          "indexed": false,
          "internalType": "bool",
          "name": "vote",
          "type": "bool"
        },
        {
          "indexed": false,
          "internalType": "uint256",
          "name": "voices",
          "type": "uint256"
        }
      ],
      "name": "Voted",
      "type": "event"
    },
    {
      "inputs": [
        {
          "internalType": "uint256[]",
          "name": "_idsJury",
          "type": "uint256[]"
        },
        {
          "internalType": "string",
          "name": "_tokenURI",
          "type": "string"
        },
        {
          "internalType": "uint256[]",
          "name": "_idsOption",
          "type": "uint256[]"
        },
        {
          "internalType": "enum Competitions.TypeCompetitions",
          "name": "_typeCompetitions",
          "type": "uint8"
        },
        {
          "internalType": "uint256",
          "name": "_startDate",
          "type": "uint256"
        },
        {
          "internalType": "uint256",
          "name": "_endDate",
          "type": "uint256"
        }
      ],
      "name": "addCompetition",
      "outputs": [],
      "stateMutability": "nonpayable",
      "type": "function"
    },
    {
      "inputs": [
        {
          "internalType": "address",
          "name": "to",
          "type": "address"
        },
        {
          "internalType": "uint256",
          "name": "tokenId",
          "type": "uint256"
        }
      ],
      "name": "approve",
      "outputs": [],
      "stateMutability": "nonpayable",
      "type": "function"
    },
    {
      "inputs": [
        {
          "internalType": "address",
          "name": "owner",
          "type": "address"
        }
      ],
      "name": "balanceOf",
      "outputs": [
        {
          "internalType": "uint256",
          "name": "",
          "type": "uint256"
        }
      ],
      "stateMutability": "view",
      "type": "function"
    },
    {
      "inputs": [
        {
          "internalType": "uint256",
          "name": "tokenId",
          "type": "uint256"
        }
      ],
      "name": "getApproved",
      "outputs": [
        {
          "internalType": "address",
          "name": "",
          "type": "address"
        }
      ],
      "stateMutability": "view",
      "type": "function"
    },
    {
      "inputs": [
        {
          "internalType": "uint256",
          "name": "_competitionId",
          "type": "uint256"
        }
      ],
      "name": "getCompetition",
      "outputs": [
        {
          "components": [
            {
              "internalType": "uint256",
              "name": "id",
              "type": "uint256"
            },
            {
              "internalType": "string",
              "name": "tokenURI",
              "type": "string"
            },
            {
              "internalType": "enum Competitions.TypeCompetitions",
              "name": "typeCompetitions",
              "type": "uint8"
            },
            {
              "internalType": "uint256",
              "name": "startTime",
              "type": "uint256"
            },
            {
              "internalType": "uint256",
              "name": "endTime",
              "type": "uint256"
            }
          ],
          "internalType": "struct Competitions.CompetitionVotingSession",
          "name": "",
          "type": "tuple"
        }
      ],
      "stateMutability": "view",
      "type": "function"
    },
    {
      "inputs": [
        {
          "internalType": "address",
          "name": "jury",
          "type": "address"
        }
      ],
      "name": "getJuryId",
      "outputs": [
        {
          "internalType": "uint256",
          "name": "",
          "type": "uint256"
        }
      ],
      "stateMutability": "view",
      "type": "function"
    },
    {
      "inputs": [
        {
          "internalType": "uint256",
          "name": "_competitionId",
          "type": "uint256"
        }
      ],
      "name": "getVoterStatus",
      "outputs": [
        {
          "internalType": "bool",
          "name": "",
          "type": "bool"
        }
      ],
      "stateMutability": "view",
      "type": "function"
    },
    {
      "inputs": [
        {
          "internalType": "uint256",
          "name": "_competitionId",
          "type": "uint256"
        }
      ],
      "name": "getVotingCompetitionStatus",
      "outputs": [
        {
          "internalType": "enum Competitions.VotingCompetitionStatus",
          "name": "",
          "type": "uint8"
        }
      ],
      "stateMutability": "view",
      "type": "function"
    },
    {
      "inputs": [
        {
          "internalType": "address",
          "name": "owner",
          "type": "address"
        },
        {
          "internalType": "address",
          "name": "operator",
          "type": "address"
        }
      ],
      "name": "isApprovedForAll",
      "outputs": [
        {
          "internalType": "bool",
          "name": "",
          "type": "bool"
        }
      ],
      "stateMutability": "view",
      "type": "function"
    },
    {
      "inputs": [],
      "name": "name",
      "outputs": [
        {
          "internalType": "string",
          "name": "",
          "type": "string"
        }
      ],
      "stateMutability": "view",
      "type": "function"
    },
    {
      "inputs": [],
      "name": "owner",
      "outputs": [
        {
          "internalType": "address",
          "name": "",
          "type": "address"
        }
      ],
      "stateMutability": "view",
      "type": "function"
    },
    {
      "inputs": [
        {
          "internalType": "uint256",
          "name": "tokenId",
          "type": "uint256"
        }
      ],
      "name": "ownerOf",
      "outputs": [
        {
          "internalType": "address",
          "name": "",
          "type": "address"
        }
      ],
      "stateMutability": "view",
      "type": "function"
    },
    {
      "inputs": [],
      "name": "renounceOwnership",
      "outputs": [],
      "stateMutability": "nonpayable",
      "type": "function"
    },
    {
      "inputs": [
        {
          "internalType": "address",
          "name": "from",
          "type": "address"
        },
        {
          "internalType": "address",
          "name": "to",
          "type": "address"
        },
        {
          "internalType": "uint256",
          "name": "tokenId",
          "type": "uint256"
        }
      ],
      "name": "safeTransferFrom",
      "outputs": [],
      "stateMutability": "nonpayable",
      "type": "function"
    },
    {
      "inputs": [
        {
          "internalType": "address",
          "name": "from",
          "type": "address"
        },
        {
          "internalType": "address",
          "name": "to",
          "type": "address"
        },
        {
          "internalType": "uint256",
          "name": "tokenId",
          "type": "uint256"
        },
        {
          "internalType": "bytes",
          "name": "data",
          "type": "bytes"
        }
      ],
      "name": "safeTransferFrom",
      "outputs": [],
      "stateMutability": "nonpayable",
      "type": "function"
    },
    {
      "inputs": [
        {
          "internalType": "address",
          "name": "operator",
          "type": "address"
        },
        {
          "internalType": "bool",
          "name": "approved",
          "type": "bool"
        }
      ],
      "name": "setApprovalForAll",
      "outputs": [],
      "stateMutability": "nonpayable",
      "type": "function"
    },
    {
      "inputs": [
        {
          "internalType": "bytes4",
          "name": "interfaceId",
          "type": "bytes4"
        }
      ],
      "name": "supportsInterface",
      "outputs": [
        {
          "internalType": "bool",
          "name": "",
          "type": "bool"
        }
      ],
      "stateMutability": "view",
      "type": "function"
    },
    {
      "inputs": [],
      "name": "symbol",
      "outputs": [
        {
          "internalType": "string",
          "name": "",
          "type": "string"
        }
      ],
      "stateMutability": "view",
      "type": "function"
    },
    {
      "inputs": [
        {
          "internalType": "uint256",
          "name": "index",
          "type": "uint256"
        }
      ],
      "name": "tokenByIndex",
      "outputs": [
        {
          "internalType": "uint256",
          "name": "",
          "type": "uint256"
        }
      ],
      "stateMutability": "view",
      "type": "function"
    },
    {
      "inputs": [
        {
          "internalType": "address",
          "name": "owner",
          "type": "address"
        },
        {
          "internalType": "uint256",
          "name": "index",
          "type": "uint256"
        }
      ],
      "name": "tokenOfOwnerByIndex",
      "outputs": [
        {
          "internalType": "uint256",
          "name": "",
          "type": "uint256"
        }
      ],
      "stateMutability": "view",
      "type": "function"
    },
    {
      "inputs": [
        {
          "internalType": "uint256",
          "name": "tokenId",
          "type": "uint256"
        }
      ],
      "name": "tokenURI",
      "outputs": [
        {
          "internalType": "string",
          "name": "",
          "type": "string"
        }
      ],
      "stateMutability": "view",
      "type": "function"
    },
    {
      "inputs": [],
      "name": "totalSupply",
      "outputs": [
        {
          "internalType": "uint256",
          "name": "",
          "type": "uint256"
        }
      ],
      "stateMutability": "view",
      "type": "function"
    },
    {
      "inputs": [
        {
          "internalType": "address",
          "name": "from",
          "type": "address"
        },
        {
          "internalType": "address",
          "name": "to",
          "type": "address"
        },
        {
          "internalType": "uint256",
          "name": "tokenId",
          "type": "uint256"
        }
      ],
      "name": "transferFrom",
      "outputs": [],
      "stateMutability": "nonpayable",
      "type": "function"
    },
    {
      "inputs": [
        {
          "internalType": "address",
          "name": "newOwner",
          "type": "address"
        }
      ],
      "name": "transferOwnership",
      "outputs": [],
      "stateMutability": "nonpayable",
      "type": "function"
    },
    {
      "inputs": [
        {
          "internalType": "uint256",
          "name": "_competitionId",
          "type": "uint256"
        },
        {
          "internalType": "uint256",
          "name": "_tokenIdOption",
          "type": "uint256"
        }
      ],
      "name": "voteOnCompetition",
      "outputs": [],
      "stateMutability": "nonpayable",
      "type": "function"
    }
  ],
  "transactionHash": "0x4c5a0450c9995a80e96da27b68efbc593ad4263849b06a051a4a436a0f2792e9",
  "args": [
    "DevFest Competition",
    "DFC"
  ],
  "numDeployments": 4,
  "solcInputHash": "39dbfaddccc7b68a65c59f36fe7165ca",
  "bytecode": "0x60806040523480156200001157600080fd5b5060405162004fc038038062004fc08339818101604052810190620000379190620002ea565b818181816200005b6200004f6200008b60201b60201c565b6200009360201b60201c565b81600190816200006c9190620005ba565b5080600290816200007e9190620005ba565b50505050505050620006a1565b600033905090565b60008060009054906101000a900473ffffffffffffffffffffffffffffffffffffffff169050816000806101000a81548173ffffffffffffffffffffffffffffffffffffffff021916908373ffffffffffffffffffffffffffffffffffffffff1602179055508173ffffffffffffffffffffffffffffffffffffffff168173ffffffffffffffffffffffffffffffffffffffff167f8be0079c531659141344cd1fd0a4f28419497f9722a3daafe3b4186f6b6457e060405160405180910390a35050565b6000604051905090565b600080fd5b600080fd5b600080fd5b600080fd5b6000601f19601f8301169050919050565b7f4e487b7100000000000000000000000000000000000000000000000000000000600052604160045260246000fd5b620001c08262000175565b810181811067ffffffffffffffff82111715620001e257620001e162000186565b5b80604052505050565b6000620001f762000157565b9050620002058282620001b5565b919050565b600067ffffffffffffffff82111562000228576200022762000186565b5b620002338262000175565b9050602081019050919050565b60005b838110156200026057808201518184015260208101905062000243565b60008484015250505050565b6000620002836200027d846200020a565b620001eb565b905082815260208101848484011115620002a257620002a162000170565b5b620002af84828562000240565b509392505050565b600082601f830112620002cf57620002ce6200016b565b5b8151620002e18482602086016200026c565b91505092915050565b6000806040838503121562000304576200030362000161565b5b600083015167ffffffffffffffff81111562000325576200032462000166565b5b6200033385828601620002b7565b925050602083015167ffffffffffffffff81111562000357576200035662000166565b5b6200036585828601620002b7565b9150509250929050565b600081519050919050565b7f4e487b7100000000000000000000000000000000000000000000000000000000600052602260045260246000fd5b60006002820490506001821680620003c257607f821691505b602082108103620003d857620003d76200037a565b5b50919050565b60008190508160005260206000209050919050565b60006020601f8301049050919050565b600082821b905092915050565b600060088302620004427fffffffffffffffffffffffffffffffffffffffffffffffffffffffffffffffff8262000403565b6200044e868362000403565b95508019841693508086168417925050509392505050565b6000819050919050565b6000819050919050565b60006200049b620004956200048f8462000466565b62000470565b62000466565b9050919050565b6000819050919050565b620004b7836200047a565b620004cf620004c682620004a2565b84845462000410565b825550505050565b600090565b620004e6620004d7565b620004f3818484620004ac565b505050565b5b818110156200051b576200050f600082620004dc565b600181019050620004f9565b5050565b601f8211156200056a576200053481620003de565b6200053f84620003f3565b810160208510156200054f578190505b620005676200055e85620003f3565b830182620004f8565b50505b505050565b600082821c905092915050565b60006200058f600019846008026200056f565b1980831691505092915050565b6000620005aa83836200057c565b9150826002028217905092915050565b620005c5826200036f565b67ffffffffffffffff811115620005e157620005e062000186565b5b620005ed8254620003a9565b620005fa8282856200051f565b600060209050601f8311600181146200063257600084156200061d578287015190505b6200062985826200059c565b86555062000699565b601f1984166200064286620003de565b60005b828110156200066c5784890151825560018201915060208501945060208101905062000645565b868310156200068c578489015162000688601f8916826200057c565b8355505b6001600288020188555050505b505050505050565b61490f80620006b16000396000f3fe608060405234801561001057600080fd5b50600436106101735760003560e01c80636352211e116100de578063b88d4fde11610097578063e985e9c511610071578063e985e9c51461046e578063eb65ad991461049e578063f2fde38b146104ce578063f4036466146104ea57610173565b8063b88d4fde146103f2578063c23467df1461040e578063c87b56dd1461043e57610173565b80636352211e1461033057806370a0823114610360578063715018a6146103905780638da5cb5b1461039a57806395d89b41146103b8578063a22cb465146103d657610173565b806313a3deac1161013057806313a3deac1461024a57806318160ddd1461027a57806323b872dd146102985780632f745c59146102b457806342842e0e146102e45780634f6ccce71461030057610173565b806301ffc9a71461017857806306fdde03146101a8578063081812fc146101c6578063095ea7b3146101f65780630e634d2a146102125780630f59e0451461022e575b600080fd5b610192600480360381019061018d9190612b83565b61051a565b60405161019f9190612bcb565b60405180910390f35b6101b0610594565b6040516101bd9190612c76565b60405180910390f35b6101e060048036038101906101db9190612cce565b610626565b6040516101ed9190612d3c565b60405180910390f35b610210600480360381019061020b9190612d83565b61066c565b005b61022c60048036038101906102279190612fe5565b610783565b005b610248600480360381019061024391906130c6565b610b67565b005b610264600480360381019061025f9190612cce565b610f2b565b6040516102719190612bcb565b60405180910390f35b610282611025565b60405161028f9190613115565b60405180910390f35b6102b260048036038101906102ad9190613130565b611032565b005b6102ce60048036038101906102c99190612d83565b611092565b6040516102db9190613115565b60405180910390f35b6102fe60048036038101906102f99190613130565b611137565b005b61031a60048036038101906103159190612cce565b611157565b6040516103279190613115565b60405180910390f35b61034a60048036038101906103459190612cce565b6111c8565b6040516103579190612d3c565b60405180910390f35b61037a60048036038101906103759190613183565b61124e565b6040516103879190613115565b60405180910390f35b610398611305565b005b6103a2611319565b6040516103af9190612d3c565b60405180910390f35b6103c0611342565b6040516103cd9190612c76565b60405180910390f35b6103f060048036038101906103eb91906131dc565b6113d4565b005b61040c600480360381019061040791906132bd565b6113ea565b005b61042860048036038101906104239190612cce565b61144c565b60405161043591906133b7565b60405180910390f35b61045860048036038101906104539190612cce565b61150c565b6040516104659190612c76565b60405180910390f35b610488600480360381019061048391906133d2565b611574565b6040516104959190612bcb565b60405180910390f35b6104b860048036038101906104b39190613183565b611608565b6040516104c59190613115565b60405180910390f35b6104e860048036038101906104e39190613183565b6116de565b005b61050460048036038101906104ff9190612cce565b611761565b6040516105119190613529565b60405180910390f35b60007f780e9d63000000000000000000000000000000000000000000000000000000007bffffffffffffffffffffffffffffffffffffffffffffffffffffffff1916827bffffffffffffffffffffffffffffffffffffffffffffffffffffffff1916148061058d575061058c82611888565b5b9050919050565b6060600180546105a39061357a565b80601f01602080910402602001604051908101604052809291908181526020018280546105cf9061357a565b801561061c5780601f106105f15761010080835404028352916020019161061c565b820191906000526020600020905b8154815290600101906020018083116105ff57829003601f168201915b5050505050905090565b60006106318261196a565b6005600083815260200190815260200160002060009054906101000a900473ffffffffffffffffffffffffffffffffffffffff169050919050565b6000610677826111c8565b90508073ffffffffffffffffffffffffffffffffffffffff168373ffffffffffffffffffffffffffffffffffffffff16036106e7576040517f08c379a00000000000000000000000000000000000000000000000000000000081526004016106de9061361d565b60405180910390fd5b8073ffffffffffffffffffffffffffffffffffffffff166107066119b5565b73ffffffffffffffffffffffffffffffffffffffff16148061073557506107348161072f6119b5565b611574565b5b610774576040517f08c379a000000000000000000000000000000000000000000000000000000000815260040161076b906136af565b60405180910390fd5b61077e83836119bd565b505050565b61078b611a76565b4282116107cd576040517f08c379a00000000000000000000000000000000000000000000000000000000081526004016107c490613741565b60405180910390fd5b80821061080f576040517f08c379a0000000000000000000000000000000000000000000000000000000008152600401610806906137d3565b60405180910390fd5b600286511015610854576040517f08c379a000000000000000000000000000000000000000000000000000000000815260040161084b90613865565b60405180910390fd5b600484511015610899576040517f08c379a0000000000000000000000000000000000000000000000000000000008152600401610890906138f7565b60405180910390fd5b6040516020016108a89061393d565b60405160208183030381529060405280519060200120836040516020016108cf919061396c565b6040516020818303038152906040528051906020012003610925576040517f08c379a000000000000000000000000000000000000000000000000000000000815260040161091c906139f9565b60405180910390fd5b60006001600c805490506109399190613a48565b905060006040518060a0016040528083815260200188815260200186600281111561096757610966613340565b5b8152602001858152602001848152509050600c8190806001815401808255809150506001900390600052602060002090600502016000909190919091506000820151816000015560208201518160010190816109c39190613c28565b5060408201518160020160006101000a81548160ff021916908360028111156109ef576109ee613340565b5b02179055506060820151816003015560808201518160040155505060005b8851811015610a7d57600e6000848152602001908152602001600020898281518110610a3c57610a3b613cfa565b5b602002602001015190806001815401808255809150506001900390600052602060002001600090919091909150558080610a7590613d29565b915050610a0d565b5060005b8651811015610b255760006040518060400160405280898481518110610aaa57610aa9613cfa565b5b6020026020010151815260200160008152509050600f600085815260200190815260200160002081908060018154018082558091505060019003906000526020600020906002020160009091909190915060008201518160000155602082015181600101555050508080610b1d90613d29565b915050610a81565b507f344aaa0824cf73b2022c14c29679b30550254276677ba83187b03ca860f029de82604051610b559190613115565b60405180910390a15050505050505050565b600c80549050821115610baf576040517f08c379a0000000000000000000000000000000000000000000000000000000008152600401610ba690613de3565b60405180910390fd5b610bb882611af4565b610bf7576040517f08c379a0000000000000000000000000000000000000000000000000000000008152600401610bee90613e75565b60405180910390fd5b42600c8381548110610c0c57610c0b613cfa565b5b90600052602060002090600502016003015410610c5e576040517f08c379a0000000000000000000000000000000000000000000000000000000008152600401610c5590613f07565b60405180910390fd5b60001515600d600084815260200190815260200160002060003373ffffffffffffffffffffffffffffffffffffffff1673ffffffffffffffffffffffffffffffffffffffff16815260200190815260200160002060000160149054906101000a900460ff16151514610d05576040517f08c379a0000000000000000000000000000000000000000000000000000000008152600401610cfc90613f73565b60405180910390fd5b600080600090505b600f600085815260200190815260200160002080549050811015610e015782600f60008681526020019081526020016000208281548110610d5157610d50613cfa565b5b90600052602060002090600202016000015403610dee57600f60008581526020019081526020016000208181548110610d8d57610d8c613cfa565b5b90600052602060002090600202016001016000815480929190610daf90613d29565b9190505550600f60008581526020019081526020016000208181548110610dd957610dd8613cfa565b5b90600052602060002090600202016001015491505b8080610df990613d29565b915050610d0d565b5060405180604001604052803373ffffffffffffffffffffffffffffffffffffffff16815260200160011515815250600d600085815260200190815260200160002060003373ffffffffffffffffffffffffffffffffffffffff1673ffffffffffffffffffffffffffffffffffffffff16815260200190815260200160002060008201518160000160006101000a81548173ffffffffffffffffffffffffffffffffffffffff021916908373ffffffffffffffffffffffffffffffffffffffff16021790555060208201518160000160146101000a81548160ff0219169083151502179055509050507f5106bdd0422307bd438b00b9333cf8b4c353184cc25ad2d3e73528a6b9f5792e83600183604051610f1e93929190613f93565b60405180910390a1505050565b6000600c80549050821115610f75576040517f08c379a0000000000000000000000000000000000000000000000000000000008152600401610f6c90613de3565b60405180910390fd5b610f7e82611af4565b610fbd576040517f08c379a0000000000000000000000000000000000000000000000000000000008152600401610fb490613e75565b60405180910390fd5b600d600083815260200190815260200160002060003373ffffffffffffffffffffffffffffffffffffffff1673ffffffffffffffffffffffffffffffffffffffff16815260200190815260200160002060000160149054906101000a900460ff169050919050565b6000600980549050905090565b61104361103d6119b5565b82611b82565b611082576040517f08c379a00000000000000000000000000000000000000000000000000000000081526004016110799061403c565b60405180910390fd5b61108d838383611c17565b505050565b600061109d8361124e565b82106110de576040517f08c379a00000000000000000000000000000000000000000000000000000000081526004016110d5906140ce565b60405180910390fd5b600760008473ffffffffffffffffffffffffffffffffffffffff1673ffffffffffffffffffffffffffffffffffffffff168152602001908152602001600020600083815260200190815260200160002054905092915050565b611152838383604051806020016040528060008152506113ea565b505050565b6000611161611025565b82106111a2576040517f08c379a000000000000000000000000000000000000000000000000000000000815260040161119990614160565b60405180910390fd5b600982815481106111b6576111b5613cfa565b5b90600052602060002001549050919050565b6000806111d483611f10565b9050600073ffffffffffffffffffffffffffffffffffffffff168173ffffffffffffffffffffffffffffffffffffffff1603611245576040517f08c379a000000000000000000000000000000000000000000000000000000000815260040161123c906141cc565b60405180910390fd5b80915050919050565b60008073ffffffffffffffffffffffffffffffffffffffff168273ffffffffffffffffffffffffffffffffffffffff16036112be576040517f08c379a00000000000000000000000000000000000000000000000000000000081526004016112b59061425e565b60405180910390fd5b600460008373ffffffffffffffffffffffffffffffffffffffff1673ffffffffffffffffffffffffffffffffffffffff168152602001908152602001600020549050919050565b61130d611a76565b6113176000611f4d565b565b60008060009054906101000a900473ffffffffffffffffffffffffffffffffffffffff16905090565b6060600280546113519061357a565b80601f016020809104026020016040519081016040528092919081815260200182805461137d9061357a565b80156113ca5780601f1061139f576101008083540402835291602001916113ca565b820191906000526020600020905b8154815290600101906020018083116113ad57829003601f168201915b5050505050905090565b6113e66113df6119b5565b8383612011565b5050565b6113fb6113f56119b5565b83611b82565b61143a576040517f08c379a00000000000000000000000000000000000000000000000000000000081526004016114319061403c565b60405180910390fd5b6114468484848461217d565b50505050565b6000600c80549050821115611496576040517f08c379a000000000000000000000000000000000000000000000000000000000815260040161148d90613de3565b60405180910390fd5b42600c83815481106114ab576114aa613cfa565b5b90600052602060002090600502016003015411156114cc5760009050611507565b42600c83815481106114e1576114e0613cfa565b5b90600052602060002090600502016004015410156115025760029050611507565b600190505b919050565b60606115178261196a565b60006115216121d9565b90506000815111611541576040518060200160405280600081525061156c565b8061154b846121f0565b60405160200161155c9291906142ba565b6040516020818303038152906040525b915050919050565b6000600660008473ffffffffffffffffffffffffffffffffffffffff1673ffffffffffffffffffffffffffffffffffffffff16815260200190815260200160002060008373ffffffffffffffffffffffffffffffffffffffff1673ffffffffffffffffffffffffffffffffffffffff16815260200190815260200160002060009054906101000a900460ff16905092915050565b60003073ffffffffffffffffffffffffffffffffffffffff166370a08231836040518263ffffffff1660e01b81526004016116439190612d3c565b602060405180830381865afa158015611660573d6000803e3d6000fd5b505050506040513d601f19601f8201168201806040525081019061168491906142f3565b6000106116c6576040517f08c379a00000000000000000000000000000000000000000000000000000000081526004016116bd90614392565b60405180910390fd5b60006116d3836000611092565b905080915050919050565b6116e6611a76565b600073ffffffffffffffffffffffffffffffffffffffff168173ffffffffffffffffffffffffffffffffffffffff1603611755576040517f08c379a000000000000000000000000000000000000000000000000000000000815260040161174c90614424565b60405180910390fd5b61175e81611f4d565b50565b611769612ad6565b600c828154811061177d5761177c613cfa565b5b90600052602060002090600502016040518060a0016040529081600082015481526020016001820180546117b09061357a565b80601f01602080910402602001604051908101604052809291908181526020018280546117dc9061357a565b80156118295780601f106117fe57610100808354040283529160200191611829565b820191906000526020600020905b81548152906001019060200180831161180c57829003601f168201915b505050505081526020016002820160009054906101000a900460ff16600281111561185757611856613340565b5b600281111561186957611868613340565b5b8152602001600382015481526020016004820154815250509050919050565b60007f80ac58cd000000000000000000000000000000000000000000000000000000007bffffffffffffffffffffffffffffffffffffffffffffffffffffffff1916827bffffffffffffffffffffffffffffffffffffffffffffffffffffffff1916148061195357507f5b5e139f000000000000000000000000000000000000000000000000000000007bffffffffffffffffffffffffffffffffffffffffffffffffffffffff1916827bffffffffffffffffffffffffffffffffffffffffffffffffffffffff1916145b806119635750611962826122be565b5b9050919050565b61197381612328565b6119b2576040517f08c379a00000000000000000000000000000000000000000000000000000000081526004016119a9906141cc565b60405180910390fd5b50565b600033905090565b816005600083815260200190815260200160002060006101000a81548173ffffffffffffffffffffffffffffffffffffffff021916908373ffffffffffffffffffffffffffffffffffffffff160217905550808273ffffffffffffffffffffffffffffffffffffffff16611a30836111c8565b73ffffffffffffffffffffffffffffffffffffffff167f8c5be1e5ebec7d5bd14f71427d1e84f3dd0314c0f7b2291e5b200ac8c7c3b92560405160405180910390a45050565b611a7e6119b5565b73ffffffffffffffffffffffffffffffffffffffff16611a9c611319565b73ffffffffffffffffffffffffffffffffffffffff1614611af2576040517f08c379a0000000000000000000000000000000000000000000000000000000008152600401611ae990614490565b60405180910390fd5b565b600080600090506000611b0633611608565b905060005b600e600086815260200190815260200160002080549050811015611b775781600e60008781526020019081526020016000208281548110611b4f57611b4e613cfa565b5b906000526020600020015403611b6457600192505b8080611b6f90613d29565b915050611b0b565b508192505050919050565b600080611b8e836111c8565b90508073ffffffffffffffffffffffffffffffffffffffff168473ffffffffffffffffffffffffffffffffffffffff161480611bd05750611bcf8185611574565b5b80611c0e57508373ffffffffffffffffffffffffffffffffffffffff16611bf684610626565b73ffffffffffffffffffffffffffffffffffffffff16145b91505092915050565b8273ffffffffffffffffffffffffffffffffffffffff16611c37826111c8565b73ffffffffffffffffffffffffffffffffffffffff1614611c8d576040517f08c379a0000000000000000000000000000000000000000000000000000000008152600401611c8490614522565b60405180910390fd5b600073ffffffffffffffffffffffffffffffffffffffff168273ffffffffffffffffffffffffffffffffffffffff1603611cfc576040517f08c379a0000000000000000000000000000000000000000000000000000000008152600401611cf3906145b4565b60405180910390fd5b611d098383836001612369565b8273ffffffffffffffffffffffffffffffffffffffff16611d29826111c8565b73ffffffffffffffffffffffffffffffffffffffff1614611d7f576040517f08c379a0000000000000000000000000000000000000000000000000000000008152600401611d7690614522565b60405180910390fd5b6005600082815260200190815260200160002060006101000a81549073ffffffffffffffffffffffffffffffffffffffff02191690556001600460008573ffffffffffffffffffffffffffffffffffffffff1673ffffffffffffffffffffffffffffffffffffffff168152602001908152602001600020600082825403925050819055506001600460008473ffffffffffffffffffffffffffffffffffffffff1673ffffffffffffffffffffffffffffffffffffffff16815260200190815260200160002060008282540192505081905550816003600083815260200190815260200160002060006101000a81548173ffffffffffffffffffffffffffffffffffffffff021916908373ffffffffffffffffffffffffffffffffffffffff160217905550808273ffffffffffffffffffffffffffffffffffffffff168473ffffffffffffffffffffffffffffffffffffffff167fddf252ad1be2c89b69c2b068fc378daa952ba7f163c4a11628f55a4df523b3ef60405160405180910390a4611f0b83838360016124c7565b505050565b60006003600083815260200190815260200160002060009054906101000a900473ffffffffffffffffffffffffffffffffffffffff169050919050565b60008060009054906101000a900473ffffffffffffffffffffffffffffffffffffffff169050816000806101000a81548173ffffffffffffffffffffffffffffffffffffffff021916908373ffffffffffffffffffffffffffffffffffffffff1602179055508173ffffffffffffffffffffffffffffffffffffffff168173ffffffffffffffffffffffffffffffffffffffff167f8be0079c531659141344cd1fd0a4f28419497f9722a3daafe3b4186f6b6457e060405160405180910390a35050565b8173ffffffffffffffffffffffffffffffffffffffff168373ffffffffffffffffffffffffffffffffffffffff160361207f576040517f08c379a000000000000000000000000000000000000000000000000000000000815260040161207690614620565b60405180910390fd5b80600660008573ffffffffffffffffffffffffffffffffffffffff1673ffffffffffffffffffffffffffffffffffffffff16815260200190815260200160002060008473ffffffffffffffffffffffffffffffffffffffff1673ffffffffffffffffffffffffffffffffffffffff16815260200190815260200160002060006101000a81548160ff0219169083151502179055508173ffffffffffffffffffffffffffffffffffffffff168373ffffffffffffffffffffffffffffffffffffffff167f17307eab39ab6107e8899845ad3d59bd9653f200f220920489ca2b5937696c31836040516121709190612bcb565b60405180910390a3505050565b612188848484611c17565b612194848484846124cd565b6121d3576040517f08c379a00000000000000000000000000000000000000000000000000000000081526004016121ca906146b2565b60405180910390fd5b50505050565b606060405180602001604052806000815250905090565b6060600060016121ff84612654565b01905060008167ffffffffffffffff81111561221e5761221d612dc8565b5b6040519080825280601f01601f1916602001820160405280156122505781602001600182028036833780820191505090505b509050600082602001820190505b6001156122b3578080600190039150507f3031323334353637383961626364656600000000000000000000000000000000600a86061a8153600a85816122a7576122a66146d2565b5b0494506000850361225e575b819350505050919050565b60007f01ffc9a7000000000000000000000000000000000000000000000000000000007bffffffffffffffffffffffffffffffffffffffffffffffffffffffff1916827bffffffffffffffffffffffffffffffffffffffffffffffffffffffff1916149050919050565b60008073ffffffffffffffffffffffffffffffffffffffff1661234a83611f10565b73ffffffffffffffffffffffffffffffffffffffff1614159050919050565b612375848484846127a7565b60018111156123b9576040517f08c379a00000000000000000000000000000000000000000000000000000000081526004016123b090614773565b60405180910390fd5b6000829050600073ffffffffffffffffffffffffffffffffffffffff168573ffffffffffffffffffffffffffffffffffffffff1603612400576123fb816127ad565b61243f565b8373ffffffffffffffffffffffffffffffffffffffff168573ffffffffffffffffffffffffffffffffffffffff161461243e5761243d85826127f6565b5b5b600073ffffffffffffffffffffffffffffffffffffffff168473ffffffffffffffffffffffffffffffffffffffff16036124815761247c81612963565b6124c0565b8473ffffffffffffffffffffffffffffffffffffffff168473ffffffffffffffffffffffffffffffffffffffff16146124bf576124be8482612a34565b5b5b5050505050565b50505050565b60006124ee8473ffffffffffffffffffffffffffffffffffffffff16612ab3565b15612647578373ffffffffffffffffffffffffffffffffffffffff1663150b7a026125176119b5565b8786866040518563ffffffff1660e01b815260040161253994939291906147e8565b6020604051808303816000875af192505050801561257557506040513d601f19601f820116820180604052508101906125729190614849565b60015b6125f7573d80600081146125a5576040519150601f19603f3d011682016040523d82523d6000602084013e6125aa565b606091505b5060008151036125ef576040517f08c379a00000000000000000000000000000000000000000000000000000000081526004016125e6906146b2565b60405180910390fd5b805181602001fd5b63150b7a0260e01b7bffffffffffffffffffffffffffffffffffffffffffffffffffffffff1916817bffffffffffffffffffffffffffffffffffffffffffffffffffffffff19161491505061264c565b600190505b949350505050565b600080600090507a184f03e93ff9f4daa797ed6e38ed64bf6a1f01000000000000000083106126b2577a184f03e93ff9f4daa797ed6e38ed64bf6a1f01000000000000000083816126a8576126a76146d2565b5b0492506040810190505b6d04ee2d6d415b85acef810000000083106126ef576d04ee2d6d415b85acef810000000083816126e5576126e46146d2565b5b0492506020810190505b662386f26fc10000831061271e57662386f26fc100008381612714576127136146d2565b5b0492506010810190505b6305f5e1008310612747576305f5e100838161273d5761273c6146d2565b5b0492506008810190505b612710831061276c576127108381612762576127616146d2565b5b0492506004810190505b6064831061278f5760648381612785576127846146d2565b5b0492506002810190505b600a831061279e576001810190505b80915050919050565b50505050565b600980549050600a600083815260200190815260200160002081905550600981908060018154018082558091505060019003906000526020600020016000909190919091505550565b600060016128038461124e565b61280d9190614876565b90506000600860008481526020019081526020016000205490508181146128f2576000600760008673ffffffffffffffffffffffffffffffffffffffff1673ffffffffffffffffffffffffffffffffffffffff168152602001908152602001600020600084815260200190815260200160002054905080600760008773ffffffffffffffffffffffffffffffffffffffff1673ffffffffffffffffffffffffffffffffffffffff168152602001908152602001600020600084815260200190815260200160002081905550816008600083815260200190815260200160002081905550505b6008600084815260200190815260200160002060009055600760008573ffffffffffffffffffffffffffffffffffffffff1673ffffffffffffffffffffffffffffffffffffffff16815260200190815260200160002060008381526020019081526020016000206000905550505050565b600060016009805490506129779190614876565b90506000600a60008481526020019081526020016000205490506000600983815481106129a7576129a6613cfa565b5b9060005260206000200154905080600983815481106129c9576129c8613cfa565b5b906000526020600020018190555081600a600083815260200190815260200160002081905550600a6000858152602001908152602001600020600090556009805480612a1857612a176148aa565b5b6001900381819060005260206000200160009055905550505050565b6000612a3f8361124e565b905081600760008573ffffffffffffffffffffffffffffffffffffffff1673ffffffffffffffffffffffffffffffffffffffff168152602001908152602001600020600083815260200190815260200160002081905550806008600084815260200190815260200160002081905550505050565b6000808273ffffffffffffffffffffffffffffffffffffffff163b119050919050565b6040518060a00160405280600081526020016060815260200160006002811115612b0357612b02613340565b5b815260200160008152602001600081525090565b6000604051905090565b600080fd5b600080fd5b60007fffffffff0000000000000000000000000000000000000000000000000000000082169050919050565b612b6081612b2b565b8114612b6b57600080fd5b50565b600081359050612b7d81612b57565b92915050565b600060208284031215612b9957612b98612b21565b5b6000612ba784828501612b6e565b91505092915050565b60008115159050919050565b612bc581612bb0565b82525050565b6000602082019050612be06000830184612bbc565b92915050565b600081519050919050565b600082825260208201905092915050565b60005b83811015612c20578082015181840152602081019050612c05565b60008484015250505050565b6000601f19601f8301169050919050565b6000612c4882612be6565b612c528185612bf1565b9350612c62818560208601612c02565b612c6b81612c2c565b840191505092915050565b60006020820190508181036000830152612c908184612c3d565b905092915050565b6000819050919050565b612cab81612c98565b8114612cb657600080fd5b50565b600081359050612cc881612ca2565b92915050565b600060208284031215612ce457612ce3612b21565b5b6000612cf284828501612cb9565b91505092915050565b600073ffffffffffffffffffffffffffffffffffffffff82169050919050565b6000612d2682612cfb565b9050919050565b612d3681612d1b565b82525050565b6000602082019050612d516000830184612d2d565b92915050565b612d6081612d1b565b8114612d6b57600080fd5b50565b600081359050612d7d81612d57565b92915050565b60008060408385031215612d9a57612d99612b21565b5b6000612da885828601612d6e565b9250506020612db985828601612cb9565b9150509250929050565b600080fd5b7f4e487b7100000000000000000000000000000000000000000000000000000000600052604160045260246000fd5b612e0082612c2c565b810181811067ffffffffffffffff82111715612e1f57612e1e612dc8565b5b80604052505050565b6000612e32612b17565b9050612e3e8282612df7565b919050565b600067ffffffffffffffff821115612e5e57612e5d612dc8565b5b602082029050602081019050919050565b600080fd5b6000612e87612e8284612e43565b612e28565b90508083825260208201905060208402830185811115612eaa57612ea9612e6f565b5b835b81811015612ed35780612ebf8882612cb9565b845260208401935050602081019050612eac565b5050509392505050565b600082601f830112612ef257612ef1612dc3565b5b8135612f02848260208601612e74565b91505092915050565b600080fd5b600067ffffffffffffffff821115612f2b57612f2a612dc8565b5b612f3482612c2c565b9050602081019050919050565b82818337600083830152505050565b6000612f63612f5e84612f10565b612e28565b905082815260208101848484011115612f7f57612f7e612f0b565b5b612f8a848285612f41565b509392505050565b600082601f830112612fa757612fa6612dc3565b5b8135612fb7848260208601612f50565b91505092915050565b60038110612fcd57600080fd5b50565b600081359050612fdf81612fc0565b92915050565b60008060008060008060c0878903121561300257613001612b21565b5b600087013567ffffffffffffffff8111156130205761301f612b26565b5b61302c89828a01612edd565b965050602087013567ffffffffffffffff81111561304d5761304c612b26565b5b61305989828a01612f92565b955050604087013567ffffffffffffffff81111561307a57613079612b26565b5b61308689828a01612edd565b945050606061309789828a01612fd0565b93505060806130a889828a01612cb9565b92505060a06130b989828a01612cb9565b9150509295509295509295565b600080604083850312156130dd576130dc612b21565b5b60006130eb85828601612cb9565b92505060206130fc85828601612cb9565b9150509250929050565b61310f81612c98565b82525050565b600060208201905061312a6000830184613106565b92915050565b60008060006060848603121561314957613148612b21565b5b600061315786828701612d6e565b935050602061316886828701612d6e565b925050604061317986828701612cb9565b9150509250925092565b60006020828403121561319957613198612b21565b5b60006131a784828501612d6e565b91505092915050565b6131b981612bb0565b81146131c457600080fd5b50565b6000813590506131d6816131b0565b92915050565b600080604083850312156131f3576131f2612b21565b5b600061320185828601612d6e565b9250506020613212858286016131c7565b9150509250929050565b600067ffffffffffffffff82111561323757613236612dc8565b5b61324082612c2c565b9050602081019050919050565b600061326061325b8461321c565b612e28565b90508281526020810184848401111561327c5761327b612f0b565b5b613287848285612f41565b509392505050565b600082601f8301126132a4576132a3612dc3565b5b81356132b484826020860161324d565b91505092915050565b600080600080608085870312156132d7576132d6612b21565b5b60006132e587828801612d6e565b94505060206132f687828801612d6e565b935050604061330787828801612cb9565b925050606085013567ffffffffffffffff81111561332857613327612b26565b5b6133348782880161328f565b91505092959194509250565b7f4e487b7100000000000000000000000000000000000000000000000000000000600052602160045260246000fd5b600381106133805761337f613340565b5b50565b60008190506133918261336f565b919050565b60006133a182613383565b9050919050565b6133b181613396565b82525050565b60006020820190506133cc60008301846133a8565b92915050565b600080604083850312156133e9576133e8612b21565b5b60006133f785828601612d6e565b925050602061340885828601612d6e565b9150509250929050565b61341b81612c98565b82525050565b600082825260208201905092915050565b600061343d82612be6565b6134478185613421565b9350613457818560208601612c02565b61346081612c2c565b840191505092915050565b6003811061347c5761347b613340565b5b50565b600081905061348d8261346b565b919050565b600061349d8261347f565b9050919050565b6134ad81613492565b82525050565b600060a0830160008301516134cb6000860182613412565b50602083015184820360208601526134e38282613432565b91505060408301516134f860408601826134a4565b50606083015161350b6060860182613412565b50608083015161351e6080860182613412565b508091505092915050565b6000602082019050818103600083015261354381846134b3565b905092915050565b7f4e487b7100000000000000000000000000000000000000000000000000000000600052602260045260246000fd5b6000600282049050600182168061359257607f821691505b6020821081036135a5576135a461354b565b5b50919050565b7f4552433732313a20617070726f76616c20746f2063757272656e74206f776e6560008201527f7200000000000000000000000000000000000000000000000000000000000000602082015250565b6000613607602183612bf1565b9150613612826135ab565b604082019050919050565b60006020820190508181036000830152613636816135fa565b9050919050565b7f4552433732313a20617070726f76652063616c6c6572206973206e6f7420746f60008201527f6b656e206f776e6572206f7220617070726f76656420666f7220616c6c000000602082015250565b6000613699603d83612bf1565b91506136a48261363d565b604082019050919050565b600060208201905081810360008301526136c88161368c565b9050919050565b7f596f757220636f6d7065746974696f6e2063616e277420626520696e2074686560008201527f2070617374000000000000000000000000000000000000000000000000000000602082015250565b600061372b602583612bf1565b9150613736826136cf565b604082019050919050565b6000602082019050818103600083015261375a8161371e565b9050919050565b7f596f757220636f6d7065746974696f6e20656e6420646174652063616e27742060008201527f6265206265666f72652074686520737461727420646174650000000000000000602082015250565b60006137bd603883612bf1565b91506137c882613761565b604082019050919050565b600060208201905081810360008301526137ec816137b0565b9050919050565b7f596f757220636f6d7065746974696f6e206d75737420636f6e7461696e206a7560008201527f7279730000000000000000000000000000000000000000000000000000000000602082015250565b600061384f602383612bf1565b915061385a826137f3565b604082019050919050565b6000602082019050818103600083015261387e81613842565b9050919050565b7f596f757220636f6d7065746974696f6e206d75737420636f6e7461696e20617460008201527f206c656173742034206f7074696f6e7300000000000000000000000000000000602082015250565b60006138e1603083612bf1565b91506138ec82613885565b604082019050919050565b60006020820190508181036000830152613910816138d4565b9050919050565b50565b6000613927600083612bf1565b915061393282613917565b600082019050919050565b600060208201905081810360008301526139568161391a565b9050919050565b61396681613492565b82525050565b6000602082019050613981600083018461395d565b92915050565b7f596f757220636f6d7065746974696f6e206d75737420636f6e7461696e20747960008201527f7065206f6620636f6d7065746974696f6e000000000000000000000000000000602082015250565b60006139e3603183612bf1565b91506139ee82613987565b604082019050919050565b60006020820190508181036000830152613a12816139d6565b9050919050565b7f4e487b7100000000000000000000000000000000000000000000000000000000600052601160045260246000fd5b6000613a5382612c98565b9150613a5e83612c98565b9250828201905080821115613a7657613a75613a19565b5b92915050565b60008190508160005260206000209050919050565b60006020601f8301049050919050565b600082821b905092915050565b600060088302613ade7fffffffffffffffffffffffffffffffffffffffffffffffffffffffffffffffff82613aa1565b613ae88683613aa1565b95508019841693508086168417925050509392505050565b6000819050919050565b6000613b25613b20613b1b84612c98565b613b00565b612c98565b9050919050565b6000819050919050565b613b3f83613b0a565b613b53613b4b82613b2c565b848454613aae565b825550505050565b600090565b613b68613b5b565b613b73818484613b36565b505050565b5b81811015613b9757613b8c600082613b60565b600181019050613b79565b5050565b601f821115613bdc57613bad81613a7c565b613bb684613a91565b81016020851015613bc5578190505b613bd9613bd185613a91565b830182613b78565b50505b505050565b600082821c905092915050565b6000613bff60001984600802613be1565b1980831691505092915050565b6000613c188383613bee565b9150826002028217905092915050565b613c3182612be6565b67ffffffffffffffff811115613c4a57613c49612dc8565b5b613c54825461357a565b613c5f828285613b9b565b600060209050601f831160018114613c925760008415613c80578287015190505b613c8a8582613c0c565b865550613cf2565b601f198416613ca086613a7c565b60005b82811015613cc857848901518255600182019150602085019450602081019050613ca3565b86831015613ce55784890151613ce1601f891682613bee565b8355505b6001600288020188555050505b505050505050565b7f4e487b7100000000000000000000000000000000000000000000000000000000600052603260045260246000fd5b6000613d3482612c98565b91507fffffffffffffffffffffffffffffffffffffffffffffffffffffffffffffffff8203613d6657613d65613a19565b5b600182019050919050565b7f436f6d7065746974696f6e3a20566f74696e6720636f6d7065746974696f6e2060008201527f646f65736e277420657869737400000000000000000000000000000000000000602082015250565b6000613dcd602d83612bf1565b9150613dd882613d71565b604082019050919050565b60006020820190508181036000830152613dfc81613dc0565b9050919050565b7f436f6d7065746974696f6e3a20446f65736e27742061636365737320766f746960008201527f6e67000000000000000000000000000000000000000000000000000000000000602082015250565b6000613e5f602283612bf1565b9150613e6a82613e03565b604082019050919050565b60006020820190508181036000830152613e8e81613e52565b9050919050565b7f566f74696e6720636f6d7065746974696f6e2069736e2774206f70656e20796560008201527f7400000000000000000000000000000000000000000000000000000000000000602082015250565b6000613ef1602183612bf1565b9150613efc82613e95565b604082019050919050565b60006020820190508181036000830152613f2081613ee4565b9050919050565b7f596f75206861766520616c726561647920766f74656400000000000000000000600082015250565b6000613f5d601683612bf1565b9150613f6882613f27565b602082019050919050565b60006020820190508181036000830152613f8c81613f50565b9050919050565b6000606082019050613fa86000830186613106565b613fb56020830185612bbc565b613fc26040830184613106565b949350505050565b7f4552433732313a2063616c6c6572206973206e6f7420746f6b656e206f776e6560008201527f72206f7220617070726f76656400000000000000000000000000000000000000602082015250565b6000614026602d83612bf1565b915061403182613fca565b604082019050919050565b6000602082019050818103600083015261405581614019565b9050919050565b7f455243373231456e756d657261626c653a206f776e657220696e646578206f7560008201527f74206f6620626f756e6473000000000000000000000000000000000000000000602082015250565b60006140b8602b83612bf1565b91506140c38261405c565b604082019050919050565b600060208201905081810360008301526140e7816140ab565b9050919050565b7f455243373231456e756d657261626c653a20676c6f62616c20696e646578206f60008201527f7574206f6620626f756e64730000000000000000000000000000000000000000602082015250565b600061414a602c83612bf1565b9150614155826140ee565b604082019050919050565b600060208201905081810360008301526141798161413d565b9050919050565b7f4552433732313a20696e76616c696420746f6b656e2049440000000000000000600082015250565b60006141b6601883612bf1565b91506141c182614180565b602082019050919050565b600060208201905081810360008301526141e5816141a9565b9050919050565b7f4552433732313a2061646472657373207a65726f206973206e6f74206120766160008201527f6c6964206f776e65720000000000000000000000000000000000000000000000602082015250565b6000614248602983612bf1565b9150614253826141ec565b604082019050919050565b600060208201905081810360008301526142778161423b565b9050919050565b600081905092915050565b600061429482612be6565b61429e818561427e565b93506142ae818560208601612c02565b80840191505092915050565b60006142c68285614289565b91506142d28284614289565b91508190509392505050565b6000815190506142ed81612ca2565b92915050565b60006020828403121561430957614308612b21565b5b6000614317848285016142de565b91505092915050565b7f4a7572793a2054686973206164647265737320646f65736e277420686176652060008201527f616e79206a7572792e0000000000000000000000000000000000000000000000602082015250565b600061437c602983612bf1565b915061438782614320565b604082019050919050565b600060208201905081810360008301526143ab8161436f565b9050919050565b7f4f776e61626c653a206e6577206f776e657220697320746865207a65726f206160008201527f6464726573730000000000000000000000000000000000000000000000000000602082015250565b600061440e602683612bf1565b9150614419826143b2565b604082019050919050565b6000602082019050818103600083015261443d81614401565b9050919050565b7f4f776e61626c653a2063616c6c6572206973206e6f7420746865206f776e6572600082015250565b600061447a602083612bf1565b915061448582614444565b602082019050919050565b600060208201905081810360008301526144a98161446d565b9050919050565b7f4552433732313a207472616e736665722066726f6d20696e636f72726563742060008201527f6f776e6572000000000000000000000000000000000000000000000000000000602082015250565b600061450c602583612bf1565b9150614517826144b0565b604082019050919050565b6000602082019050818103600083015261453b816144ff565b9050919050565b7f4552433732313a207472616e7366657220746f20746865207a65726f2061646460008201527f7265737300000000000000000000000000000000000000000000000000000000602082015250565b600061459e602483612bf1565b91506145a982614542565b604082019050919050565b600060208201905081810360008301526145cd81614591565b9050919050565b7f4552433732313a20617070726f766520746f2063616c6c657200000000000000600082015250565b600061460a601983612bf1565b9150614615826145d4565b602082019050919050565b60006020820190508181036000830152614639816145fd565b9050919050565b7f4552433732313a207472616e7366657220746f206e6f6e20455243373231526560008201527f63656976657220696d706c656d656e7465720000000000000000000000000000602082015250565b600061469c603283612bf1565b91506146a782614640565b604082019050919050565b600060208201905081810360008301526146cb8161468f565b9050919050565b7f4e487b7100000000000000000000000000000000000000000000000000000000600052601260045260246000fd5b7f455243373231456e756d657261626c653a20636f6e736563757469766520747260008201527f616e7366657273206e6f7420737570706f727465640000000000000000000000602082015250565b600061475d603583612bf1565b915061476882614701565b604082019050919050565b6000602082019050818103600083015261478c81614750565b9050919050565b600081519050919050565b600082825260208201905092915050565b60006147ba82614793565b6147c4818561479e565b93506147d4818560208601612c02565b6147dd81612c2c565b840191505092915050565b60006080820190506147fd6000830187612d2d565b61480a6020830186612d2d565b6148176040830185613106565b818103606083015261482981846147af565b905095945050505050565b60008151905061484381612b57565b92915050565b60006020828403121561485f5761485e612b21565b5b600061486d84828501614834565b91505092915050565b600061488182612c98565b915061488c83612c98565b92508282039050818111156148a4576148a3613a19565b5b92915050565b7f4e487b7100000000000000000000000000000000000000000000000000000000600052603160045260246000fdfea26469706673582212202c341eea0d1a9d3864fc58db5afd1f361590a8423fdcf7e251c89a5f98f40a1d64736f6c63430008120033",
  "devdoc": {
    "author": "Colas Vincent",
    "events": {
      "Approval(address,address,uint256)": {
        "details": "Emitted when `owner` enables `approved` to manage the `tokenId` token."
      },
      "ApprovalForAll(address,address,bool)": {
        "details": "Emitted when `owner` enables or disables (`approved`) `operator` to manage all of its assets."
      },
      "Transfer(address,address,uint256)": {
        "details": "Emitted when `tokenId` token is transferred from `from` to `to`."
      }
    },
    "kind": "dev",
    "methods": {
      "addCompetition(uint256[],string,uint256[],uint8,uint256,uint256)": {
        "details": "Administrator defines voting period, competition, voting panel and options. event CompetitionSessionRegistered when competition has been registered",
        "params": {
          "_endDate": "End date of voting session.",
          "_idsJury": "List id token of voting juries.",
          "_idsOption": "List of ids in competition (film, actor, director).",
          "_startDate": "Voting session start date.",
          "_tokenURI": "Competition uri photo - title.",
          "_typeCompetitions": "Defines the type of options."
        }
      },
      "approve(address,uint256)": {
        "details": "See {IERC721-approve}."
      },
      "balanceOf(address)": {
        "details": "See {IERC721-balanceOf}."
      },
      "getApproved(uint256)": {
        "details": "See {IERC721-getApproved}."
      },
      "getVoterStatus(uint256)": {
        "params": {
          "_competitionId": "The voting competition identifier."
        },
        "returns": {
          "_0": "True if msg.sender has already voted on this competition id."
        }
      },
      "getVotingCompetitionStatus(uint256)": {
        "params": {
          "_competitionId": "The voting competition number."
        },
        "returns": {
          "_0": "The voting competition status."
        }
      },
      "isApprovedForAll(address,address)": {
        "details": "See {IERC721-isApprovedForAll}."
      },
      "name()": {
        "details": "See {IERC721Metadata-name}."
      },
      "owner()": {
        "details": "Returns the address of the current owner."
      },
      "ownerOf(uint256)": {
        "details": "See {IERC721-ownerOf}."
      },
      "renounceOwnership()": {
        "details": "Leaves the contract without owner. It will not be possible to call `onlyOwner` functions. Can only be called by the current owner. NOTE: Renouncing ownership will leave the contract without an owner, thereby disabling any functionality that is only available to the owner."
      },
      "safeTransferFrom(address,address,uint256)": {
        "details": "See {IERC721-safeTransferFrom}."
      },
      "safeTransferFrom(address,address,uint256,bytes)": {
        "details": "See {IERC721-safeTransferFrom}."
      },
      "setApprovalForAll(address,bool)": {
        "details": "See {IERC721-setApprovalForAll}."
      },
      "supportsInterface(bytes4)": {
        "details": "See {IERC165-supportsInterface}."
      },
      "symbol()": {
        "details": "See {IERC721Metadata-symbol}."
      },
      "tokenByIndex(uint256)": {
        "details": "See {IERC721Enumerable-tokenByIndex}."
      },
      "tokenOfOwnerByIndex(address,uint256)": {
        "details": "See {IERC721Enumerable-tokenOfOwnerByIndex}."
      },
      "tokenURI(uint256)": {
        "details": "See {IERC721Metadata-tokenURI}."
      },
      "totalSupply()": {
        "details": "See {IERC721Enumerable-totalSupply}."
      },
      "transferFrom(address,address,uint256)": {
        "details": "See {IERC721-transferFrom}."
      },
      "transferOwnership(address)": {
        "details": "Transfers ownership of the contract to a new account (`newOwner`). Can only be called by the current owner."
      },
      "voteOnCompetition(uint256,uint256)": {
        "details": "Voting is only possible if the timestamp of the current block is between startTime and endTime of the session and if the voter's address is in the list. event Voted when jury has been voted",
        "params": {
          "_competitionId": "The voting competition on which the voter wants to vote.",
          "_tokenIdOption": "The token id of the option chosen by the voter."
        }
      }
    },
    "title": "Management of Competition",
    "version": 1
  },
  "userdoc": {
    "events": {
      "CompetitionSessionRegistered(uint256)": {
        "notice": "Event"
      }
    },
    "kind": "user",
    "methods": {
      "addCompetition(uint256[],string,uint256[],uint8,uint256,uint256)": {
        "notice": "Adds a voting session for a competition."
      },
      "getVoterStatus(uint256)": {
        "notice": "Returns whether the user has voted on the voting competition."
      },
      "getVotingCompetitionStatus(uint256)": {
        "notice": "Gets the voting competition status according to the current timestamp."
      },
      "voteOnCompetition(uint256,uint256)": {
        "notice": "Allows you to vote for an option in a competition during a voting session."
      }
    },
    "notice": "Smart contract to management digital Competition for the festival.",
    "version": 1
  },
  "storageLayout": {
    "storage": [
      {
        "astId": 7,
        "contract": "contracts/competition/Competitions.sol:Competitions",
        "label": "_owner",
        "offset": 0,
        "slot": "0",
        "type": "t_address"
      },
      {
        "astId": 138,
        "contract": "contracts/competition/Competitions.sol:Competitions",
        "label": "_name",
        "offset": 0,
        "slot": "1",
        "type": "t_string_storage"
      },
      {
        "astId": 140,
        "contract": "contracts/competition/Competitions.sol:Competitions",
        "label": "_symbol",
        "offset": 0,
        "slot": "2",
        "type": "t_string_storage"
      },
      {
        "astId": 144,
        "contract": "contracts/competition/Competitions.sol:Competitions",
        "label": "_owners",
        "offset": 0,
        "slot": "3",
        "type": "t_mapping(t_uint256,t_address)"
      },
      {
        "astId": 148,
        "contract": "contracts/competition/Competitions.sol:Competitions",
        "label": "_balances",
        "offset": 0,
        "slot": "4",
        "type": "t_mapping(t_address,t_uint256)"
      },
      {
        "astId": 152,
        "contract": "contracts/competition/Competitions.sol:Competitions",
        "label": "_tokenApprovals",
        "offset": 0,
        "slot": "5",
        "type": "t_mapping(t_uint256,t_address)"
      },
      {
        "astId": 158,
        "contract": "contracts/competition/Competitions.sol:Competitions",
        "label": "_operatorApprovals",
        "offset": 0,
        "slot": "6",
        "type": "t_mapping(t_address,t_mapping(t_address,t_bool))"
      },
      {
        "astId": 1188,
        "contract": "contracts/competition/Competitions.sol:Competitions",
        "label": "_ownedTokens",
        "offset": 0,
        "slot": "7",
        "type": "t_mapping(t_address,t_mapping(t_uint256,t_uint256))"
      },
      {
        "astId": 1192,
        "contract": "contracts/competition/Competitions.sol:Competitions",
        "label": "_ownedTokensIndex",
        "offset": 0,
        "slot": "8",
        "type": "t_mapping(t_uint256,t_uint256)"
      },
      {
        "astId": 1195,
        "contract": "contracts/competition/Competitions.sol:Competitions",
        "label": "_allTokens",
        "offset": 0,
        "slot": "9",
        "type": "t_array(t_uint256)dyn_storage"
      },
      {
        "astId": 1199,
        "contract": "contracts/competition/Competitions.sol:Competitions",
        "label": "_allTokensIndex",
        "offset": 0,
        "slot": "10",
        "type": "t_mapping(t_uint256,t_uint256)"
      },
      {
        "astId": 3684,
        "contract": "contracts/competition/Competitions.sol:Competitions",
        "label": "ListJury",
        "offset": 0,
        "slot": "11",
        "type": "t_mapping(t_uint256,t_address)"
      },
      {
        "astId": 3226,
        "contract": "contracts/competition/Competitions.sol:Competitions",
        "label": "votingCompetitions",
        "offset": 0,
        "slot": "12",
        "type": "t_array(t_struct(CompetitionVotingSession)3206_storage)dyn_storage"
      },
      {
        "astId": 3233,
        "contract": "contracts/competition/Competitions.sol:Competitions",
        "label": "votingCompetitionsVoters",
        "offset": 0,
        "slot": "13",
        "type": "t_mapping(t_uint256,t_mapping(t_address,t_struct(Voter)3194_storage))"
      },
      {
        "astId": 3238,
        "contract": "contracts/competition/Competitions.sol:Competitions",
        "label": "jurysByCompetition",
        "offset": 0,
        "slot": "14",
        "type": "t_mapping(t_uint256,t_array(t_uint256)dyn_storage)"
      },
      {
        "astId": 3244,
        "contract": "contracts/competition/Competitions.sol:Competitions",
        "label": "optionsByCompetition",
        "offset": 0,
        "slot": "15",
        "type": "t_mapping(t_uint256,t_array(t_struct(Option)3189_storage)dyn_storage)"
      }
    ],
    "types": {
      "t_address": {
        "encoding": "inplace",
        "label": "address",
        "numberOfBytes": "20"
      },
      "t_array(t_struct(CompetitionVotingSession)3206_storage)dyn_storage": {
        "base": "t_struct(CompetitionVotingSession)3206_storage",
        "encoding": "dynamic_array",
        "label": "struct Competitions.CompetitionVotingSession[]",
        "numberOfBytes": "32"
      },
      "t_array(t_struct(Option)3189_storage)dyn_storage": {
        "base": "t_struct(Option)3189_storage",
        "encoding": "dynamic_array",
        "label": "struct Competitions.Option[]",
        "numberOfBytes": "32"
      },
      "t_array(t_uint256)dyn_storage": {
        "base": "t_uint256",
        "encoding": "dynamic_array",
        "label": "uint256[]",
        "numberOfBytes": "32"
      },
      "t_bool": {
        "encoding": "inplace",
        "label": "bool",
        "numberOfBytes": "1"
      },
      "t_enum(TypeCompetitions)3184": {
        "encoding": "inplace",
        "label": "enum Competitions.TypeCompetitions",
        "numberOfBytes": "1"
      },
      "t_mapping(t_address,t_bool)": {
        "encoding": "mapping",
        "key": "t_address",
        "label": "mapping(address => bool)",
        "numberOfBytes": "32",
        "value": "t_bool"
      },
      "t_mapping(t_address,t_mapping(t_address,t_bool))": {
        "encoding": "mapping",
        "key": "t_address",
        "label": "mapping(address => mapping(address => bool))",
        "numberOfBytes": "32",
        "value": "t_mapping(t_address,t_bool)"
      },
      "t_mapping(t_address,t_mapping(t_uint256,t_uint256))": {
        "encoding": "mapping",
        "key": "t_address",
        "label": "mapping(address => mapping(uint256 => uint256))",
        "numberOfBytes": "32",
        "value": "t_mapping(t_uint256,t_uint256)"
      },
      "t_mapping(t_address,t_struct(Voter)3194_storage)": {
        "encoding": "mapping",
        "key": "t_address",
        "label": "mapping(address => struct Competitions.Voter)",
        "numberOfBytes": "32",
        "value": "t_struct(Voter)3194_storage"
      },
      "t_mapping(t_address,t_uint256)": {
        "encoding": "mapping",
        "key": "t_address",
        "label": "mapping(address => uint256)",
        "numberOfBytes": "32",
        "value": "t_uint256"
      },
      "t_mapping(t_uint256,t_address)": {
        "encoding": "mapping",
        "key": "t_uint256",
        "label": "mapping(uint256 => address)",
        "numberOfBytes": "32",
        "value": "t_address"
      },
      "t_mapping(t_uint256,t_array(t_struct(Option)3189_storage)dyn_storage)": {
        "encoding": "mapping",
        "key": "t_uint256",
        "label": "mapping(uint256 => struct Competitions.Option[])",
        "numberOfBytes": "32",
        "value": "t_array(t_struct(Option)3189_storage)dyn_storage"
      },
      "t_mapping(t_uint256,t_array(t_uint256)dyn_storage)": {
        "encoding": "mapping",
        "key": "t_uint256",
        "label": "mapping(uint256 => uint256[])",
        "numberOfBytes": "32",
        "value": "t_array(t_uint256)dyn_storage"
      },
      "t_mapping(t_uint256,t_mapping(t_address,t_struct(Voter)3194_storage))": {
        "encoding": "mapping",
        "key": "t_uint256",
        "label": "mapping(uint256 => mapping(address => struct Competitions.Voter))",
        "numberOfBytes": "32",
        "value": "t_mapping(t_address,t_struct(Voter)3194_storage)"
      },
      "t_mapping(t_uint256,t_uint256)": {
        "encoding": "mapping",
        "key": "t_uint256",
        "label": "mapping(uint256 => uint256)",
        "numberOfBytes": "32",
        "value": "t_uint256"
      },
      "t_string_storage": {
        "encoding": "bytes",
        "label": "string",
        "numberOfBytes": "32"
      },
      "t_struct(CompetitionVotingSession)3206_storage": {
        "encoding": "inplace",
        "label": "struct Competitions.CompetitionVotingSession",
        "members": [
          {
            "astId": 3196,
            "contract": "contracts/competition/Competitions.sol:Competitions",
            "label": "id",
            "offset": 0,
            "slot": "0",
            "type": "t_uint256"
          },
          {
            "astId": 3198,
            "contract": "contracts/competition/Competitions.sol:Competitions",
            "label": "tokenURI",
            "offset": 0,
            "slot": "1",
            "type": "t_string_storage"
          },
          {
            "astId": 3201,
            "contract": "contracts/competition/Competitions.sol:Competitions",
            "label": "typeCompetitions",
            "offset": 0,
            "slot": "2",
            "type": "t_enum(TypeCompetitions)3184"
          },
          {
            "astId": 3203,
            "contract": "contracts/competition/Competitions.sol:Competitions",
            "label": "startTime",
            "offset": 0,
            "slot": "3",
            "type": "t_uint256"
          },
          {
            "astId": 3205,
            "contract": "contracts/competition/Competitions.sol:Competitions",
            "label": "endTime",
            "offset": 0,
            "slot": "4",
            "type": "t_uint256"
          }
        ],
        "numberOfBytes": "160"
      },
      "t_struct(Option)3189_storage": {
        "encoding": "inplace",
        "label": "struct Competitions.Option",
        "members": [
          {
            "astId": 3186,
            "contract": "contracts/competition/Competitions.sol:Competitions",
            "label": "tokenId",
            "offset": 0,
            "slot": "0",
            "type": "t_uint256"
          },
          {
            "astId": 3188,
            "contract": "contracts/competition/Competitions.sol:Competitions",
            "label": "voteCount",
            "offset": 0,
            "slot": "1",
            "type": "t_uint256"
          }
        ],
        "numberOfBytes": "64"
      },
      "t_struct(Voter)3194_storage": {
        "encoding": "inplace",
        "label": "struct Competitions.Voter",
        "members": [
          {
            "astId": 3191,
            "contract": "contracts/competition/Competitions.sol:Competitions",
            "label": "voter",
            "offset": 0,
            "slot": "0",
            "type": "t_address"
          },
          {
            "astId": 3193,
            "contract": "contracts/competition/Competitions.sol:Competitions",
            "label": "hasVoted",
            "offset": 20,
            "slot": "0",
            "type": "t_bool"
          }
        ],
        "numberOfBytes": "32"
      },
      "t_uint256": {
        "encoding": "inplace",
        "label": "uint256",
        "numberOfBytes": "32"
      }
    }
  }
}